{
	"contracts/ValidatorFactory.sol": {
		"ValidatorFactory": {
			"abi": [
				{
					"inputs": [
						{
							"internalType": "address",
							"name": "_implementation",
							"type": "address"
						}
					],
					"stateMutability": "nonpayable",
					"type": "constructor"
				},
				{
					"inputs": [],
					"name": "FailedDeployment",
					"type": "error"
				},
				{
					"inputs": [],
					"name": "FeeTooHigh",
					"type": "error"
				},
				{
					"inputs": [
						{
							"internalType": "uint256",
							"name": "balance",
							"type": "uint256"
						},
						{
							"internalType": "uint256",
							"name": "needed",
							"type": "uint256"
						}
					],
					"name": "InsufficientBalance",
					"type": "error"
				},
				{
					"inputs": [],
					"name": "InvalidValidator",
					"type": "error"
				},
				{
					"inputs": [],
					"name": "NotFeeManager",
					"type": "error"
				},
				{
					"inputs": [],
					"name": "NotPauser",
					"type": "error"
				},
				{
					"inputs": [],
					"name": "NotVoter",
					"type": "error"
				},
				{
					"inputs": [],
					"name": "PoolAlreadyExists",
					"type": "error"
				},
				{
					"inputs": [],
					"name": "ZeroAddress",
					"type": "error"
				},
				{
					"inputs": [],
					"name": "ZeroFee",
					"type": "error"
				},
				{
					"anonymous": false,
					"inputs": [
						{
							"indexed": true,
							"internalType": "address",
							"name": "validator",
							"type": "address"
						},
						{
							"indexed": false,
							"internalType": "uint256",
							"name": "fee",
							"type": "uint256"
						}
					],
					"name": "SetClaimCustomFee",
					"type": "event"
				},
				{
					"anonymous": false,
					"inputs": [
						{
							"indexed": true,
							"internalType": "address",
							"name": "validator",
							"type": "address"
						},
						{
							"indexed": false,
							"internalType": "uint256",
							"name": "fee",
							"type": "uint256"
						}
					],
					"name": "SetDepositCustomFee",
					"type": "event"
				},
				{
					"anonymous": false,
					"inputs": [
						{
							"indexed": false,
							"internalType": "address",
							"name": "feeManager",
							"type": "address"
						}
					],
					"name": "SetFeeManager",
					"type": "event"
				},
				{
					"anonymous": false,
					"inputs": [
						{
							"indexed": false,
							"internalType": "bool",
							"name": "state",
							"type": "bool"
						}
					],
					"name": "SetPauseState",
					"type": "event"
				},
				{
					"anonymous": false,
					"inputs": [
						{
							"indexed": false,
							"internalType": "address",
							"name": "pauser",
							"type": "address"
						}
					],
					"name": "SetPauser",
					"type": "event"
				},
				{
					"anonymous": false,
					"inputs": [
						{
							"indexed": false,
							"internalType": "address",
							"name": "voter",
							"type": "address"
						}
					],
					"name": "SetVoter",
					"type": "event"
				},
				{
					"anonymous": false,
					"inputs": [
						{
							"indexed": true,
							"internalType": "address",
							"name": "token",
							"type": "address"
						},
						{
							"indexed": true,
							"internalType": "address",
							"name": "owner",
							"type": "address"
						},
						{
							"indexed": false,
							"internalType": "address",
							"name": "validator",
							"type": "address"
						},
						{
							"indexed": false,
							"internalType": "uint256",
							"name": "validatorLength",
							"type": "uint256"
						}
					],
					"name": "ValidatorCreated",
					"type": "event"
				},
				{
					"inputs": [],
					"name": "MAX_FEE",
					"outputs": [
						{
							"internalType": "uint256",
							"name": "",
							"type": "uint256"
						}
					],
					"stateMutability": "view",
					"type": "function"
				},
				{
					"inputs": [
						{
							"internalType": "uint256",
							"name": "",
							"type": "uint256"
						}
					],
					"name": "allValidators",
					"outputs": [
						{
							"internalType": "address",
							"name": "",
							"type": "address"
						}
					],
					"stateMutability": "view",
					"type": "function"
				},
				{
					"inputs": [],
					"name": "allValidatorsLength",
					"outputs": [
						{
							"internalType": "uint256",
							"name": "",
							"type": "uint256"
						}
					],
					"stateMutability": "view",
					"type": "function"
				},
				{
					"inputs": [],
					"name": "claimFee",
					"outputs": [
						{
							"internalType": "uint256",
							"name": "",
							"type": "uint256"
						}
					],
					"stateMutability": "view",
					"type": "function"
				},
				{
					"inputs": [
						{
							"internalType": "address",
							"name": "_token",
							"type": "address"
						},
						{
							"internalType": "address",
							"name": "_owner",
							"type": "address"
						}
					],
					"name": "createValidator",
					"outputs": [
						{
							"internalType": "address",
							"name": "validator",
							"type": "address"
						}
					],
					"stateMutability": "nonpayable",
					"type": "function"
				},
				{
					"inputs": [
						{
							"internalType": "address",
							"name": "",
							"type": "address"
						}
					],
					"name": "customClaimFee",
					"outputs": [
						{
							"internalType": "uint256",
							"name": "",
							"type": "uint256"
						}
					],
					"stateMutability": "view",
					"type": "function"
				},
				{
					"inputs": [
						{
							"internalType": "address",
							"name": "",
							"type": "address"
						}
					],
					"name": "customDepositFee",
					"outputs": [
						{
							"internalType": "uint256",
							"name": "",
							"type": "uint256"
						}
					],
					"stateMutability": "view",
					"type": "function"
				},
				{
					"inputs": [],
					"name": "depositFee",
					"outputs": [
						{
							"internalType": "uint256",
							"name": "",
							"type": "uint256"
						}
					],
					"stateMutability": "view",
					"type": "function"
				},
				{
					"inputs": [],
					"name": "feeManager",
					"outputs": [
						{
							"internalType": "address",
							"name": "",
							"type": "address"
						}
					],
					"stateMutability": "view",
					"type": "function"
				},
				{
					"inputs": [
						{
							"internalType": "address",
							"name": "token",
							"type": "address"
						},
						{
							"internalType": "address",
							"name": "owner",
							"type": "address"
						}
					],
					"name": "getValidator",
					"outputs": [
						{
							"internalType": "address",
							"name": "",
							"type": "address"
						}
					],
					"stateMutability": "view",
					"type": "function"
				},
				{
					"inputs": [],
					"name": "implementation",
					"outputs": [
						{
							"internalType": "address",
							"name": "",
							"type": "address"
						}
					],
					"stateMutability": "view",
					"type": "function"
				},
				{
					"inputs": [],
					"name": "isPaused",
					"outputs": [
						{
							"internalType": "bool",
							"name": "",
							"type": "bool"
						}
					],
					"stateMutability": "view",
					"type": "function"
				},
				{
					"inputs": [
						{
							"internalType": "address",
							"name": "pool",
							"type": "address"
						}
					],
					"name": "isValidatorl",
					"outputs": [
						{
							"internalType": "bool",
							"name": "",
							"type": "bool"
						}
					],
					"stateMutability": "view",
					"type": "function"
				},
				{
					"inputs": [],
					"name": "pauser",
					"outputs": [
						{
							"internalType": "address",
							"name": "",
							"type": "address"
						}
					],
					"stateMutability": "view",
					"type": "function"
				},
				{
					"inputs": [
						{
							"internalType": "address",
							"name": "validator",
							"type": "address"
						},
						{
							"internalType": "uint256",
							"name": "fee",
							"type": "uint256"
						}
					],
					"name": "setClaimCustomFee",
					"outputs": [],
					"stateMutability": "nonpayable",
					"type": "function"
				},
				{
					"inputs": [
						{
							"internalType": "address",
							"name": "validator",
							"type": "address"
						},
						{
							"internalType": "uint256",
							"name": "fee",
							"type": "uint256"
						}
					],
					"name": "setDepositCustomFee",
					"outputs": [],
					"stateMutability": "nonpayable",
					"type": "function"
				},
				{
					"inputs": [
						{
							"internalType": "bool",
							"name": "_type",
							"type": "bool"
						},
						{
							"internalType": "uint256",
							"name": "_fee",
							"type": "uint256"
						}
					],
					"name": "setFee",
					"outputs": [],
					"stateMutability": "nonpayable",
					"type": "function"
				},
				{
					"inputs": [
						{
							"internalType": "address",
							"name": "_feeManager",
							"type": "address"
						}
					],
					"name": "setFeeManager",
					"outputs": [],
					"stateMutability": "nonpayable",
					"type": "function"
				},
				{
					"inputs": [
						{
							"internalType": "bool",
							"name": "_state",
							"type": "bool"
						}
					],
					"name": "setPauseState",
					"outputs": [],
					"stateMutability": "nonpayable",
					"type": "function"
				},
				{
					"inputs": [
						{
							"internalType": "address",
							"name": "_pauser",
							"type": "address"
						}
					],
					"name": "setPauser",
					"outputs": [],
					"stateMutability": "nonpayable",
					"type": "function"
				},
				{
					"inputs": [
						{
							"internalType": "address",
							"name": "_voter",
							"type": "address"
						}
					],
					"name": "setVoter",
					"outputs": [],
					"stateMutability": "nonpayable",
					"type": "function"
				},
				{
					"inputs": [],
					"name": "voter",
					"outputs": [
						{
							"internalType": "address",
							"name": "",
							"type": "address"
						}
					],
					"stateMutability": "view",
					"type": "function"
				}
			],
			"devdoc": {
				"errors": {
					"FailedDeployment()": [
						{
							"details": "The deployment failed."
						}
					],
					"InsufficientBalance(uint256,uint256)": [
						{
							"details": "The ETH balance of the account is not enough to perform the operation."
						}
					]
				},
				"kind": "dev",
				"methods": {
					"createValidator(address,address)": {
						"details": "token order does not matter",
						"params": {
							"owner": ".",
							"token": "."
						}
					},
					"getValidator(address,address)": {
						"params": {
							"owner": ".",
							"token": "."
						}
					},
					"isValidatorl(address)": {
						"params": {
							"validator": "."
						}
					},
					"setClaimCustomFee(address,uint256)": {
						"details": "A custom fee of zero means the default fee will be used."
					},
					"setDepositCustomFee(address,uint256)": {
						"details": "A custom fee of zero means the default fee will be used."
					},
					"setFee(bool,uint256)": {
						"details": "Throws if higher than maximum fee.      Throws if fee is zero.",
						"params": {
							"_fee": ".",
							"_type": "Stable or volatile pool."
						}
					},
					"setVoter(address)": {
						"details": "Only called once to set to Voter.sol - Voter does not have a function      to call this contract method, so once set it's immutable.      This also follows convention of setVoterAndDistributor() in VotingEscrow.sol",
						"params": {
							"_voter": "."
						}
					}
				},
				"version": 1
			},
			"evm": {
				"assembly": "    /* \"contracts/ValidatorFactory.sol\":202:4625  contract  ValidatorFactory is IValidatorFactory {... */\n  mstore(0x40, 0xa0)\n    /* \"contracts/ValidatorFactory.sol\":833:1107  constructor(address _implementation) {... */\n  callvalue\n  dup1\n  iszero\n  tag_1\n  jumpi\n  revert(0x00, 0x00)\ntag_1:\n  pop\n  mload(0x40)\n  sub(codesize, bytecodeSize)\n  dup1\n  bytecodeSize\n  dup4\n  codecopy\n  dup2\n  dup2\n  add\n  0x40\n  mstore\n  dup2\n  add\n  swap1\n  tag_2\n  swap2\n  swap1\n  tag_3\n  jump\t// in\ntag_2:\n    /* \"contracts/ValidatorFactory.sol\":898:913  _implementation */\n  dup1\n    /* \"contracts/ValidatorFactory.sol\":881:913  implementation = _implementation */\n  0xffffffffffffffffffffffffffffffffffffffff\n  and\n  0x80\n  dup2\n  0xffffffffffffffffffffffffffffffffffffffff\n  and\n  dup2\n  mstore\n  pop\n  pop\n    /* \"contracts/ValidatorFactory.sol\":932:942  msg.sender */\n  caller\n    /* \"contracts/ValidatorFactory.sol\":924:929  voter */\n  0x04\n  0x00\n    /* \"contracts/ValidatorFactory.sol\":924:942  voter = msg.sender */\n  0x0100\n  exp\n  dup2\n  sload\n  dup2\n  0xffffffffffffffffffffffffffffffffffffffff\n  mul\n  not\n  and\n  swap1\n  dup4\n  0xffffffffffffffffffffffffffffffffffffffff\n  and\n  mul\n  or\n  swap1\n  sstore\n  pop\n    /* \"contracts/ValidatorFactory.sol\":962:972  msg.sender */\n  caller\n    /* \"contracts/ValidatorFactory.sol\":953:959  pauser */\n  0x00\n  0x01\n    /* \"contracts/ValidatorFactory.sol\":953:972  pauser = msg.sender */\n  0x0100\n  exp\n  dup2\n  sload\n  dup2\n  0xffffffffffffffffffffffffffffffffffffffff\n  mul\n  not\n  and\n  swap1\n  dup4\n  0xffffffffffffffffffffffffffffffffffffffff\n  and\n  mul\n  or\n  swap1\n  sstore\n  pop\n    /* \"contracts/ValidatorFactory.sol\":996:1006  msg.sender */\n  caller\n    /* \"contracts/ValidatorFactory.sol\":983:993  feeManager */\n  0x03\n  0x00\n    /* \"contracts/ValidatorFactory.sol\":983:1006  feeManager = msg.sender */\n  0x0100\n  exp\n  dup2\n  sload\n  dup2\n  0xffffffffffffffffffffffffffffffffffffffff\n  mul\n  not\n  and\n  swap1\n  dup4\n  0xffffffffffffffffffffffffffffffffffffffff\n  and\n  mul\n  or\n  swap1\n  sstore\n  pop\n    /* \"contracts/ValidatorFactory.sol\":1028:1033  false */\n  0x00\n    /* \"contracts/ValidatorFactory.sol\":1017:1025  isPaused */\n  0x00\n  0x00\n    /* \"contracts/ValidatorFactory.sol\":1017:1033  isPaused = false */\n  0x0100\n  exp\n  dup2\n  sload\n  dup2\n  0xff\n  mul\n  not\n  and\n  swap1\n  dup4\n  iszero\n  iszero\n  mul\n  or\n  swap1\n  sstore\n  pop\n    /* \"contracts/ValidatorFactory.sol\":1057:1058  5 */\n  0x05\n    /* \"contracts/ValidatorFactory.sol\":1044:1054  depositFee */\n  0x01\n    /* \"contracts/ValidatorFactory.sol\":1044:1058  depositFee = 5 */\n  dup2\n  swap1\n  sstore\n  pop\n    /* \"contracts/ValidatorFactory.sol\":1089:1091  30 */\n  0x1e\n    /* \"contracts/ValidatorFactory.sol\":1078:1086  claimFee */\n  0x02\n    /* \"contracts/ValidatorFactory.sol\":1078:1091  claimFee = 30 */\n  dup2\n  swap1\n  sstore\n  pop\n    /* \"contracts/ValidatorFactory.sol\":833:1107  constructor(address _implementation) {... */\n  pop\n    /* \"contracts/ValidatorFactory.sol\":202:4625  contract  ValidatorFactory is IValidatorFactory {... */\n  jump(tag_6)\n    /* \"#utility.yul\":88:205   */\ntag_8:\n    /* \"#utility.yul\":197:198   */\n  0x00\n    /* \"#utility.yul\":194:195   */\n  0x00\n    /* \"#utility.yul\":187:199   */\n  revert\n    /* \"#utility.yul\":334:460   */\ntag_10:\n    /* \"#utility.yul\":371:378   */\n  0x00\n    /* \"#utility.yul\":411:453   */\n  0xffffffffffffffffffffffffffffffffffffffff\n    /* \"#utility.yul\":404:409   */\n  dup3\n    /* \"#utility.yul\":400:454   */\n  and\n    /* \"#utility.yul\":389:454   */\n  swap1\n  pop\n    /* \"#utility.yul\":334:460   */\n  swap2\n  swap1\n  pop\n  jump\t// out\n    /* \"#utility.yul\":466:562   */\ntag_11:\n    /* \"#utility.yul\":503:510   */\n  0x00\n    /* \"#utility.yul\":532:556   */\n  tag_20\n    /* \"#utility.yul\":550:555   */\n  dup3\n    /* \"#utility.yul\":532:556   */\n  tag_10\n  jump\t// in\ntag_20:\n    /* \"#utility.yul\":521:556   */\n  swap1\n  pop\n    /* \"#utility.yul\":466:562   */\n  swap2\n  swap1\n  pop\n  jump\t// out\n    /* \"#utility.yul\":568:690   */\ntag_12:\n    /* \"#utility.yul\":641:665   */\n  tag_22\n    /* \"#utility.yul\":659:664   */\n  dup2\n    /* \"#utility.yul\":641:665   */\n  tag_11\n  jump\t// in\ntag_22:\n    /* \"#utility.yul\":634:639   */\n  dup2\n    /* \"#utility.yul\":631:666   */\n  eq\n    /* \"#utility.yul\":621:684   */\n  tag_23\n  jumpi\n    /* \"#utility.yul\":680:681   */\n  0x00\n    /* \"#utility.yul\":677:678   */\n  0x00\n    /* \"#utility.yul\":670:682   */\n  revert\n    /* \"#utility.yul\":621:684   */\ntag_23:\n    /* \"#utility.yul\":568:690   */\n  pop\n  jump\t// out\n    /* \"#utility.yul\":696:839   */\ntag_13:\n    /* \"#utility.yul\":753:758   */\n  0x00\n    /* \"#utility.yul\":784:790   */\n  dup2\n    /* \"#utility.yul\":778:791   */\n  mload\n    /* \"#utility.yul\":769:791   */\n  swap1\n  pop\n    /* \"#utility.yul\":800:833   */\n  tag_25\n    /* \"#utility.yul\":827:832   */\n  dup2\n    /* \"#utility.yul\":800:833   */\n  tag_12\n  jump\t// in\ntag_25:\n    /* \"#utility.yul\":696:839   */\n  swap3\n  swap2\n  pop\n  pop\n  jump\t// out\n    /* \"#utility.yul\":845:1196   */\ntag_3:\n    /* \"#utility.yul\":915:921   */\n  0x00\n    /* \"#utility.yul\":964:966   */\n  0x20\n    /* \"#utility.yul\":952:961   */\n  dup3\n    /* \"#utility.yul\":943:950   */\n  dup5\n    /* \"#utility.yul\":939:962   */\n  sub\n    /* \"#utility.yul\":935:967   */\n  slt\n    /* \"#utility.yul\":932:1051   */\n  iszero\n  tag_27\n  jumpi\n    /* \"#utility.yul\":970:1049   */\n  tag_28\n  tag_8\n  jump\t// in\ntag_28:\n    /* \"#utility.yul\":932:1051   */\ntag_27:\n    /* \"#utility.yul\":1090:1091   */\n  0x00\n    /* \"#utility.yul\":1115:1179   */\n  tag_29\n    /* \"#utility.yul\":1171:1178   */\n  dup5\n    /* \"#utility.yul\":1162:1168   */\n  dup3\n    /* \"#utility.yul\":1151:1160   */\n  dup6\n    /* \"#utility.yul\":1147:1169   */\n  add\n    /* \"#utility.yul\":1115:1179   */\n  tag_13\n  jump\t// in\ntag_29:\n    /* \"#utility.yul\":1105:1179   */\n  swap2\n  pop\n    /* \"#utility.yul\":1061:1189   */\n  pop\n    /* \"#utility.yul\":845:1196   */\n  swap3\n  swap2\n  pop\n  pop\n  jump\t// out\n    /* \"contracts/ValidatorFactory.sol\":202:4625  contract  ValidatorFactory is IValidatorFactory {... */\ntag_6:\n  mload(0x80)\n  codecopy(0x00, dataOffset(sub_0), dataSize(sub_0))\n  0x00\n  assignImmutable(\"0x1a65db4f2ea95c4a38ef67ec9eb02656311df27569f1d2e5f15fb9ffe8498721\")\n  return(0x00, dataSize(sub_0))\nstop\n\nsub_0: assembly {\n        /* \"contracts/ValidatorFactory.sol\":202:4625  contract  ValidatorFactory is IValidatorFactory {... */\n      mstore(0x40, 0x80)\n      callvalue\n      dup1\n      iszero\n      tag_1\n      jumpi\n      revert(0x00, 0x00)\n    tag_1:\n      pop\n      jumpi(tag_2, lt(calldatasize, 0x04))\n      shr(0xe0, calldataload(0x00))\n      dup1\n      0x99d32fc4\n      gt\n      tag_25\n      jumpi\n      dup1\n      0xbcecf81b\n      gt\n      tag_26\n      jumpi\n      dup1\n      0xbcecf81b\n      eq\n      tag_19\n      jumpi\n      dup1\n      0xcd1a0dd2\n      eq\n      tag_20\n      jumpi\n      dup1\n      0xcdb88ad1\n      eq\n      tag_21\n      jumpi\n      dup1\n      0xd0fb0203\n      eq\n      tag_22\n      jumpi\n      dup1\n      0xe1f76b44\n      eq\n      tag_23\n      jumpi\n      dup1\n      0xf64ee765\n      eq\n      tag_24\n      jumpi\n      jump(tag_2)\n    tag_26:\n      dup1\n      0x99d32fc4\n      eq\n      tag_14\n      jumpi\n      dup1\n      0x9fd0506d\n      eq\n      tag_15\n      jumpi\n      dup1\n      0xa74adceb\n      eq\n      tag_16\n      jumpi\n      dup1\n      0xb187bd26\n      eq\n      tag_17\n      jumpi\n      dup1\n      0xbc063e1a\n      eq\n      tag_18\n      jumpi\n      jump(tag_2)\n    tag_25:\n      dup1\n      0x472d35b9\n      gt\n      tag_27\n      jumpi\n      dup1\n      0x472d35b9\n      eq\n      tag_8\n      jumpi\n      dup1\n      0x4bc2a657\n      eq\n      tag_9\n      jumpi\n      dup1\n      0x5c60da1b\n      eq\n      tag_10\n      jumpi\n      dup1\n      0x67a52793\n      eq\n      tag_11\n      jumpi\n      dup1\n      0x830e4eef\n      eq\n      tag_12\n      jumpi\n      dup1\n      0x984fa01f\n      eq\n      tag_13\n      jumpi\n      jump(tag_2)\n    tag_27:\n      dup1\n      0x28a6b3ff\n      eq\n      tag_3\n      jumpi\n      dup1\n      0x2c3de946\n      eq\n      tag_4\n      jumpi\n      dup1\n      0x2d88af4a\n      eq\n      tag_5\n      jumpi\n      dup1\n      0x38ed1793\n      eq\n      tag_6\n      jumpi\n      dup1\n      0x46c96aac\n      eq\n      tag_7\n      jumpi\n    tag_2:\n      revert(0x00, 0x00)\n        /* \"contracts/ValidatorFactory.sol\":711:762  mapping(address => uint256) public customDepositFee */\n    tag_3:\n      tag_28\n      0x04\n      dup1\n      calldatasize\n      sub\n      dup2\n      add\n      swap1\n      tag_29\n      swap2\n      swap1\n      tag_30\n      jump\t// in\n    tag_29:\n      tag_31\n      jump\t// in\n    tag_28:\n      mload(0x40)\n      tag_32\n      swap2\n      swap1\n      tag_33\n      jump\t// in\n    tag_32:\n      mload(0x40)\n      dup1\n      swap2\n      sub\n      swap1\n      return\n        /* \"contracts/ValidatorFactory.sol\":2924:3358  function setDepositCustomFee(address validator, uint256 fee) external {... */\n    tag_4:\n      tag_34\n      0x04\n      dup1\n      calldatasize\n      sub\n      dup2\n      add\n      swap1\n      tag_35\n      swap2\n      swap1\n      tag_36\n      jump\t// in\n    tag_35:\n      tag_37\n      jump\t// in\n    tag_34:\n      stop\n        /* \"contracts/ValidatorFactory.sol\":1820:2047  function setPauser(address _pauser) external {... */\n    tag_5:\n      tag_38\n      0x04\n      dup1\n      calldatasize\n      sub\n      dup2\n      add\n      swap1\n      tag_39\n      swap2\n      swap1\n      tag_30\n      jump\t// in\n    tag_39:\n      tag_40\n      jump\t// in\n    tag_38:\n      stop\n        /* \"contracts/ValidatorFactory.sol\":1495:1604  function isValidatorl(address pool) external view returns (bool) {... */\n    tag_6:\n      tag_41\n      0x04\n      dup1\n      calldatasize\n      sub\n      dup2\n      add\n      swap1\n      tag_42\n      swap2\n      swap1\n      tag_30\n      jump\t// in\n    tag_42:\n      tag_43\n      jump\t// in\n    tag_41:\n      mload(0x40)\n      tag_44\n      swap2\n      swap1\n      tag_45\n      jump\t// in\n    tag_44:\n      mload(0x40)\n      dup1\n      swap2\n      sub\n      swap1\n      return\n        /* \"contracts/ValidatorFactory.sol\":512:532  address public voter */\n    tag_7:\n      tag_46\n      tag_47\n      jump\t// in\n    tag_46:\n      mload(0x40)\n      tag_48\n      swap2\n      swap1\n      tag_49\n      jump\t// in\n    tag_48:\n      mload(0x40)\n      dup1\n      swap2\n      sub\n      swap1\n      return\n        /* \"contracts/ValidatorFactory.sol\":2236:2499  function setFeeManager(address _feeManager) external {... */\n    tag_8:\n      tag_50\n      0x04\n      dup1\n      calldatasize\n      sub\n      dup2\n      add\n      swap1\n      tag_51\n      swap2\n      swap1\n      tag_30\n      jump\t// in\n    tag_51:\n      tag_52\n      jump\t// in\n    tag_50:\n      stop\n        /* \"contracts/ValidatorFactory.sol\":1651:1812  function setVoter(address _voter) external {... */\n    tag_9:\n      tag_53\n      0x04\n      dup1\n      calldatasize\n      sub\n      dup2\n      add\n      swap1\n      tag_54\n      swap2\n      swap1\n      tag_30\n      jump\t// in\n    tag_54:\n      tag_55\n      jump\t// in\n    tag_53:\n      stop\n        /* \"contracts/ValidatorFactory.sol\":257:296  address public immutable implementation */\n    tag_10:\n      tag_56\n      tag_57\n      jump\t// in\n    tag_56:\n      mload(0x40)\n      tag_58\n      swap2\n      swap1\n      tag_49\n      jump\t// in\n    tag_58:\n      mload(0x40)\n      dup1\n      swap2\n      sub\n      swap1\n      return\n        /* \"contracts/ValidatorFactory.sol\":366:391  uint256 public depositFee */\n    tag_11:\n      tag_59\n      tag_60\n      jump\t// in\n    tag_59:\n      mload(0x40)\n      tag_61\n      swap2\n      swap1\n      tag_33\n      jump\t// in\n    tag_61:\n      mload(0x40)\n      dup1\n      swap2\n      sub\n      swap1\n      return\n        /* \"contracts/ValidatorFactory.sol\":3880:4622  function createValidator(address _token, address _owner) public returns (address validator) {... */\n    tag_12:\n      tag_62\n      0x04\n      dup1\n      calldatasize\n      sub\n      dup2\n      add\n      swap1\n      tag_63\n      swap2\n      swap1\n      tag_64\n      jump\t// in\n    tag_63:\n      tag_65\n      jump\t// in\n    tag_62:\n      mload(0x40)\n      tag_66\n      swap2\n      swap1\n      tag_49\n      jump\t// in\n    tag_66:\n      mload(0x40)\n      dup1\n      swap2\n      sub\n      swap1\n      return\n        /* \"contracts/ValidatorFactory.sol\":3405:3833  function setClaimCustomFee(address validator, uint256 fee) external {... */\n    tag_13:\n      tag_67\n      0x04\n      dup1\n      calldatasize\n      sub\n      dup2\n      add\n      swap1\n      tag_68\n      swap2\n      swap1\n      tag_36\n      jump\t// in\n    tag_68:\n      tag_69\n      jump\t// in\n    tag_67:\n      stop\n        /* \"contracts/ValidatorFactory.sol\":398:421  uint256 public claimFee */\n    tag_14:\n      tag_70\n      tag_71\n      jump\t// in\n    tag_70:\n      mload(0x40)\n      tag_72\n      swap2\n      swap1\n      tag_33\n      jump\t// in\n    tag_72:\n      mload(0x40)\n      dup1\n      swap2\n      sub\n      swap1\n      return\n        /* \"contracts/ValidatorFactory.sol\":332:353  address public pauser */\n    tag_15:\n      tag_73\n      tag_74\n      jump\t// in\n    tag_73:\n      mload(0x40)\n      tag_75\n      swap2\n      swap1\n      tag_49\n      jump\t// in\n    tag_75:\n      mload(0x40)\n      dup1\n      swap2\n      sub\n      swap1\n      return\n        /* \"contracts/ValidatorFactory.sol\":769:818  mapping(address => uint256) public customClaimFee */\n    tag_16:\n      tag_76\n      0x04\n      dup1\n      calldatasize\n      sub\n      dup2\n      add\n      swap1\n      tag_77\n      swap2\n      swap1\n      tag_30\n      jump\t// in\n    tag_77:\n      tag_78\n      jump\t// in\n    tag_76:\n      mload(0x40)\n      tag_79\n      swap2\n      swap1\n      tag_33\n      jump\t// in\n    tag_79:\n      mload(0x40)\n      dup1\n      swap2\n      sub\n      swap1\n      return\n        /* \"contracts/ValidatorFactory.sol\":305:325  bool public isPaused */\n    tag_17:\n      tag_80\n      tag_81\n      jump\t// in\n    tag_80:\n      mload(0x40)\n      tag_82\n      swap2\n      swap1\n      tag_45\n      jump\t// in\n    tag_82:\n      mload(0x40)\n      dup1\n      swap2\n      sub\n      swap1\n      return\n        /* \"contracts/ValidatorFactory.sol\":428:465  uint256 public constant MAX_FEE = 300 */\n    tag_18:\n      tag_83\n      tag_84\n      jump\t// in\n    tag_83:\n      mload(0x40)\n      tag_85\n      swap2\n      swap1\n      tag_33\n      jump\t// in\n    tag_85:\n      mload(0x40)\n      dup1\n      swap2\n      sub\n      swap1\n      return\n        /* \"contracts/ValidatorFactory.sol\":622:652  address[] public allValidators */\n    tag_19:\n      tag_86\n      0x04\n      dup1\n      calldatasize\n      sub\n      dup2\n      add\n      swap1\n      tag_87\n      swap2\n      swap1\n      tag_88\n      jump\t// in\n    tag_87:\n      tag_89\n      jump\t// in\n    tag_86:\n      mload(0x40)\n      tag_90\n      swap2\n      swap1\n      tag_49\n      jump\t// in\n    tag_90:\n      mload(0x40)\n      dup1\n      swap2\n      sub\n      swap1\n      return\n        /* \"contracts/ValidatorFactory.sol\":1310:1448  function getValidator(address token, address owner) external view returns (address) {... */\n    tag_20:\n      tag_91\n      0x04\n      dup1\n      calldatasize\n      sub\n      dup2\n      add\n      swap1\n      tag_92\n      swap2\n      swap1\n      tag_64\n      jump\t// in\n    tag_92:\n      tag_93\n      jump\t// in\n    tag_91:\n      mload(0x40)\n      tag_94\n      swap2\n      swap1\n      tag_49\n      jump\t// in\n    tag_94:\n      mload(0x40)\n      dup1\n      swap2\n      sub\n      swap1\n      return\n        /* \"contracts/ValidatorFactory.sol\":2055:2228  function setPauseState(bool _state) external {... */\n    tag_21:\n      tag_95\n      0x04\n      dup1\n      calldatasize\n      sub\n      dup2\n      add\n      swap1\n      tag_96\n      swap2\n      swap1\n      tag_97\n      jump\t// in\n    tag_96:\n      tag_98\n      jump\t// in\n    tag_95:\n      stop\n        /* \"contracts/ValidatorFactory.sol\":480:505  address public feeManager */\n    tag_22:\n      tag_99\n      tag_100\n      jump\t// in\n    tag_99:\n      mload(0x40)\n      tag_101\n      swap2\n      swap1\n      tag_49\n      jump\t// in\n    tag_101:\n      mload(0x40)\n      dup1\n      swap2\n      sub\n      swap1\n      return\n        /* \"contracts/ValidatorFactory.sol\":2550:2877  function setFee(bool _type, uint256 _fee) external {... */\n    tag_23:\n      tag_102\n      0x04\n      dup1\n      calldatasize\n      sub\n      dup2\n      add\n      swap1\n      tag_103\n      swap2\n      swap1\n      tag_104\n      jump\t// in\n    tag_103:\n      tag_105\n      jump\t// in\n    tag_102:\n      stop\n        /* \"contracts/ValidatorFactory.sol\":1154:1263  function allValidatorsLength() external view returns (uint256) {... */\n    tag_24:\n      tag_106\n      tag_107\n      jump\t// in\n    tag_106:\n      mload(0x40)\n      tag_108\n      swap2\n      swap1\n      tag_33\n      jump\t// in\n    tag_108:\n      mload(0x40)\n      dup1\n      swap2\n      sub\n      swap1\n      return\n        /* \"contracts/ValidatorFactory.sol\":711:762  mapping(address => uint256) public customDepositFee */\n    tag_31:\n      mstore(0x20, 0x08)\n      dup1\n      0x00\n      mstore\n      keccak256(0x00, 0x40)\n      0x00\n      swap2\n      pop\n      swap1\n      pop\n      sload\n      dup2\n      jump\t// out\n        /* \"contracts/ValidatorFactory.sol\":2924:3358  function setDepositCustomFee(address validator, uint256 fee) external {... */\n    tag_37:\n        /* \"contracts/ValidatorFactory.sol\":3023:3033  feeManager */\n      0x03\n      0x00\n      swap1\n      sload\n      swap1\n      0x0100\n      exp\n      swap1\n      div\n      0xffffffffffffffffffffffffffffffffffffffff\n      and\n        /* \"contracts/ValidatorFactory.sol\":3009:3033  msg.sender != feeManager */\n      0xffffffffffffffffffffffffffffffffffffffff\n      and\n        /* \"contracts/ValidatorFactory.sol\":3009:3019  msg.sender */\n      caller\n        /* \"contracts/ValidatorFactory.sol\":3009:3033  msg.sender != feeManager */\n      0xffffffffffffffffffffffffffffffffffffffff\n      and\n      eq\n        /* \"contracts/ValidatorFactory.sol\":3005:3057  if (msg.sender != feeManager) revert NotFeeManager() */\n      tag_110\n      jumpi\n        /* \"contracts/ValidatorFactory.sol\":3042:3057  NotFeeManager() */\n      mload(0x40)\n      0xf5d267eb00000000000000000000000000000000000000000000000000000000\n      dup2\n      mstore\n      0x04\n      add\n      mload(0x40)\n      dup1\n      swap2\n      sub\n      swap1\n      revert\n        /* \"contracts/ValidatorFactory.sol\":3005:3057  if (msg.sender != feeManager) revert NotFeeManager() */\n    tag_110:\n        /* \"contracts/ValidatorFactory.sol\":462:465  300 */\n      0x012c\n        /* \"contracts/ValidatorFactory.sol\":3153:3156  fee */\n      dup2\n        /* \"contracts/ValidatorFactory.sol\":3153:3166  fee > MAX_FEE */\n      gt\n        /* \"contracts/ValidatorFactory.sol\":3149:3187  if (fee > MAX_FEE) revert FeeTooHigh() */\n      iszero\n      tag_111\n      jumpi\n        /* \"contracts/ValidatorFactory.sol\":3175:3187  FeeTooHigh() */\n      mload(0x40)\n      0xcd4e616700000000000000000000000000000000000000000000000000000000\n      dup2\n      mstore\n      0x04\n      add\n      mload(0x40)\n      dup1\n      swap2\n      sub\n      swap1\n      revert\n        /* \"contracts/ValidatorFactory.sol\":3149:3187  if (fee > MAX_FEE) revert FeeTooHigh() */\n    tag_111:\n        /* \"contracts/ValidatorFactory.sol\":3203:3215  _isValidator */\n      0x07\n        /* \"contracts/ValidatorFactory.sol\":3203:3226  _isValidator[validator] */\n      0x00\n        /* \"contracts/ValidatorFactory.sol\":3216:3225  validator */\n      dup4\n        /* \"contracts/ValidatorFactory.sol\":3203:3226  _isValidator[validator] */\n      0xffffffffffffffffffffffffffffffffffffffff\n      and\n      0xffffffffffffffffffffffffffffffffffffffff\n      and\n      dup2\n      mstore\n      0x20\n      add\n      swap1\n      dup2\n      mstore\n      0x20\n      add\n      0x00\n      keccak256\n      0x00\n      swap1\n      sload\n      swap1\n      0x0100\n      exp\n      swap1\n      div\n      0xff\n      and\n        /* \"contracts/ValidatorFactory.sol\":3198:3253  if (!_isValidator[validator]) revert InvalidValidator() */\n      tag_112\n      jumpi\n        /* \"contracts/ValidatorFactory.sol\":3235:3253  InvalidValidator() */\n      mload(0x40)\n      0x682a6e7c00000000000000000000000000000000000000000000000000000000\n      dup2\n      mstore\n      0x04\n      add\n      mload(0x40)\n      dup1\n      swap2\n      sub\n      swap1\n      revert\n        /* \"contracts/ValidatorFactory.sol\":3198:3253  if (!_isValidator[validator]) revert InvalidValidator() */\n    tag_112:\n        /* \"contracts/ValidatorFactory.sol\":3296:3299  fee */\n      dup1\n        /* \"contracts/ValidatorFactory.sol\":3266:3282  customDepositFee */\n      0x08\n        /* \"contracts/ValidatorFactory.sol\":3266:3293  customDepositFee[validator] */\n      0x00\n        /* \"contracts/ValidatorFactory.sol\":3283:3292  validator */\n      dup5\n        /* \"contracts/ValidatorFactory.sol\":3266:3293  customDepositFee[validator] */\n      0xffffffffffffffffffffffffffffffffffffffff\n      and\n      0xffffffffffffffffffffffffffffffffffffffff\n      and\n      dup2\n      mstore\n      0x20\n      add\n      swap1\n      dup2\n      mstore\n      0x20\n      add\n      0x00\n      keccak256\n        /* \"contracts/ValidatorFactory.sol\":3266:3299  customDepositFee[validator] = fee */\n      dup2\n      swap1\n      sstore\n      pop\n        /* \"contracts/ValidatorFactory.sol\":3335:3344  validator */\n      dup2\n        /* \"contracts/ValidatorFactory.sol\":3315:3350  SetDepositCustomFee(validator, fee) */\n      0xffffffffffffffffffffffffffffffffffffffff\n      and\n      0xce78db41faad8d3a613429389971e6dc25f809f59a4e8467ea2b71c71203ec08\n        /* \"contracts/ValidatorFactory.sol\":3346:3349  fee */\n      dup3\n        /* \"contracts/ValidatorFactory.sol\":3315:3350  SetDepositCustomFee(validator, fee) */\n      mload(0x40)\n      tag_113\n      swap2\n      swap1\n      tag_33\n      jump\t// in\n    tag_113:\n      mload(0x40)\n      dup1\n      swap2\n      sub\n      swap1\n      log2\n        /* \"contracts/ValidatorFactory.sol\":2924:3358  function setDepositCustomFee(address validator, uint256 fee) external {... */\n      pop\n      pop\n      jump\t// out\n        /* \"contracts/ValidatorFactory.sol\":1820:2047  function setPauser(address _pauser) external {... */\n    tag_40:\n        /* \"contracts/ValidatorFactory.sol\":1894:1900  pauser */\n      0x00\n      0x01\n      swap1\n      sload\n      swap1\n      0x0100\n      exp\n      swap1\n      div\n      0xffffffffffffffffffffffffffffffffffffffff\n      and\n        /* \"contracts/ValidatorFactory.sol\":1880:1900  msg.sender != pauser */\n      0xffffffffffffffffffffffffffffffffffffffff\n      and\n        /* \"contracts/ValidatorFactory.sol\":1880:1890  msg.sender */\n      caller\n        /* \"contracts/ValidatorFactory.sol\":1880:1900  msg.sender != pauser */\n      0xffffffffffffffffffffffffffffffffffffffff\n      and\n      eq\n        /* \"contracts/ValidatorFactory.sol\":1876:1920  if (msg.sender != pauser) revert NotPauser() */\n      tag_115\n      jumpi\n        /* \"contracts/ValidatorFactory.sol\":1909:1920  NotPauser() */\n      mload(0x40)\n      0x492f678100000000000000000000000000000000000000000000000000000000\n      dup2\n      mstore\n      0x04\n      add\n      mload(0x40)\n      dup1\n      swap2\n      sub\n      swap1\n      revert\n        /* \"contracts/ValidatorFactory.sol\":1876:1920  if (msg.sender != pauser) revert NotPauser() */\n    tag_115:\n        /* \"contracts/ValidatorFactory.sol\":1954:1955  0 */\n      0x00\n        /* \"contracts/ValidatorFactory.sol\":1935:1956  _pauser == address(0) */\n      0xffffffffffffffffffffffffffffffffffffffff\n      and\n        /* \"contracts/ValidatorFactory.sol\":1935:1942  _pauser */\n      dup2\n        /* \"contracts/ValidatorFactory.sol\":1935:1956  _pauser == address(0) */\n      0xffffffffffffffffffffffffffffffffffffffff\n      and\n      sub\n        /* \"contracts/ValidatorFactory.sol\":1931:1978  if (_pauser == address(0)) revert ZeroAddress() */\n      tag_116\n      jumpi\n        /* \"contracts/ValidatorFactory.sol\":1965:1978  ZeroAddress() */\n      mload(0x40)\n      0xd92e233d00000000000000000000000000000000000000000000000000000000\n      dup2\n      mstore\n      0x04\n      add\n      mload(0x40)\n      dup1\n      swap2\n      sub\n      swap1\n      revert\n        /* \"contracts/ValidatorFactory.sol\":1931:1978  if (_pauser == address(0)) revert ZeroAddress() */\n    tag_116:\n        /* \"contracts/ValidatorFactory.sol\":1998:2005  _pauser */\n      dup1\n        /* \"contracts/ValidatorFactory.sol\":1989:1995  pauser */\n      0x00\n      0x01\n        /* \"contracts/ValidatorFactory.sol\":1989:2005  pauser = _pauser */\n      0x0100\n      exp\n      dup2\n      sload\n      dup2\n      0xffffffffffffffffffffffffffffffffffffffff\n      mul\n      not\n      and\n      swap1\n      dup4\n      0xffffffffffffffffffffffffffffffffffffffff\n      and\n      mul\n      or\n      swap1\n      sstore\n      pop\n        /* \"contracts/ValidatorFactory.sol\":2021:2039  SetPauser(_pauser) */\n      0xe02efb9e8f0fc21546730ab32d594f62d586e1bbb15bb5045edd0b1878a77b35\n        /* \"contracts/ValidatorFactory.sol\":2031:2038  _pauser */\n      dup2\n        /* \"contracts/ValidatorFactory.sol\":2021:2039  SetPauser(_pauser) */\n      mload(0x40)\n      tag_117\n      swap2\n      swap1\n      tag_49\n      jump\t// in\n    tag_117:\n      mload(0x40)\n      dup1\n      swap2\n      sub\n      swap1\n      log1\n        /* \"contracts/ValidatorFactory.sol\":1820:2047  function setPauser(address _pauser) external {... */\n      pop\n      jump\t// out\n        /* \"contracts/ValidatorFactory.sol\":1495:1604  function isValidatorl(address pool) external view returns (bool) {... */\n    tag_43:\n        /* \"contracts/ValidatorFactory.sol\":1554:1558  bool */\n      0x00\n        /* \"contracts/ValidatorFactory.sol\":1578:1590  _isValidator */\n      0x07\n        /* \"contracts/ValidatorFactory.sol\":1578:1596  _isValidator[pool] */\n      0x00\n        /* \"contracts/ValidatorFactory.sol\":1591:1595  pool */\n      dup4\n        /* \"contracts/ValidatorFactory.sol\":1578:1596  _isValidator[pool] */\n      0xffffffffffffffffffffffffffffffffffffffff\n      and\n      0xffffffffffffffffffffffffffffffffffffffff\n      and\n      dup2\n      mstore\n      0x20\n      add\n      swap1\n      dup2\n      mstore\n      0x20\n      add\n      0x00\n      keccak256\n      0x00\n      swap1\n      sload\n      swap1\n      0x0100\n      exp\n      swap1\n      div\n      0xff\n      and\n        /* \"contracts/ValidatorFactory.sol\":1571:1596  return _isValidator[pool] */\n      swap1\n      pop\n        /* \"contracts/ValidatorFactory.sol\":1495:1604  function isValidatorl(address pool) external view returns (bool) {... */\n      swap2\n      swap1\n      pop\n      jump\t// out\n        /* \"contracts/ValidatorFactory.sol\":512:532  address public voter */\n    tag_47:\n      0x04\n      0x00\n      swap1\n      sload\n      swap1\n      0x0100\n      exp\n      swap1\n      div\n      0xffffffffffffffffffffffffffffffffffffffff\n      and\n      dup2\n      jump\t// out\n        /* \"contracts/ValidatorFactory.sol\":2236:2499  function setFeeManager(address _feeManager) external {... */\n    tag_52:\n        /* \"contracts/ValidatorFactory.sol\":2318:2328  feeManager */\n      0x03\n      0x00\n      swap1\n      sload\n      swap1\n      0x0100\n      exp\n      swap1\n      div\n      0xffffffffffffffffffffffffffffffffffffffff\n      and\n        /* \"contracts/ValidatorFactory.sol\":2304:2328  msg.sender != feeManager */\n      0xffffffffffffffffffffffffffffffffffffffff\n      and\n        /* \"contracts/ValidatorFactory.sol\":2304:2314  msg.sender */\n      caller\n        /* \"contracts/ValidatorFactory.sol\":2304:2328  msg.sender != feeManager */\n      0xffffffffffffffffffffffffffffffffffffffff\n      and\n      eq\n        /* \"contracts/ValidatorFactory.sol\":2300:2352  if (msg.sender != feeManager) revert NotFeeManager() */\n      tag_120\n      jumpi\n        /* \"contracts/ValidatorFactory.sol\":2337:2352  NotFeeManager() */\n      mload(0x40)\n      0xf5d267eb00000000000000000000000000000000000000000000000000000000\n      dup2\n      mstore\n      0x04\n      add\n      mload(0x40)\n      dup1\n      swap2\n      sub\n      swap1\n      revert\n        /* \"contracts/ValidatorFactory.sol\":2300:2352  if (msg.sender != feeManager) revert NotFeeManager() */\n    tag_120:\n        /* \"contracts/ValidatorFactory.sol\":2390:2391  0 */\n      0x00\n        /* \"contracts/ValidatorFactory.sol\":2367:2392  _feeManager == address(0) */\n      0xffffffffffffffffffffffffffffffffffffffff\n      and\n        /* \"contracts/ValidatorFactory.sol\":2367:2378  _feeManager */\n      dup2\n        /* \"contracts/ValidatorFactory.sol\":2367:2392  _feeManager == address(0) */\n      0xffffffffffffffffffffffffffffffffffffffff\n      and\n      sub\n        /* \"contracts/ValidatorFactory.sol\":2363:2414  if (_feeManager == address(0)) revert ZeroAddress() */\n      tag_121\n      jumpi\n        /* \"contracts/ValidatorFactory.sol\":2401:2414  ZeroAddress() */\n      mload(0x40)\n      0xd92e233d00000000000000000000000000000000000000000000000000000000\n      dup2\n      mstore\n      0x04\n      add\n      mload(0x40)\n      dup1\n      swap2\n      sub\n      swap1\n      revert\n        /* \"contracts/ValidatorFactory.sol\":2363:2414  if (_feeManager == address(0)) revert ZeroAddress() */\n    tag_121:\n        /* \"contracts/ValidatorFactory.sol\":2438:2449  _feeManager */\n      dup1\n        /* \"contracts/ValidatorFactory.sol\":2425:2435  feeManager */\n      0x03\n      0x00\n        /* \"contracts/ValidatorFactory.sol\":2425:2449  feeManager = _feeManager */\n      0x0100\n      exp\n      dup2\n      sload\n      dup2\n      0xffffffffffffffffffffffffffffffffffffffff\n      mul\n      not\n      and\n      swap1\n      dup4\n      0xffffffffffffffffffffffffffffffffffffffff\n      and\n      mul\n      or\n      swap1\n      sstore\n      pop\n        /* \"contracts/ValidatorFactory.sol\":2465:2491  SetFeeManager(_feeManager) */\n      0x5d0517e3a4eabea892d9750138cd21d4a6cf3b935b43d0598df7055f463819b2\n        /* \"contracts/ValidatorFactory.sol\":2479:2490  _feeManager */\n      dup2\n        /* \"contracts/ValidatorFactory.sol\":2465:2491  SetFeeManager(_feeManager) */\n      mload(0x40)\n      tag_122\n      swap2\n      swap1\n      tag_49\n      jump\t// in\n    tag_122:\n      mload(0x40)\n      dup1\n      swap2\n      sub\n      swap1\n      log1\n        /* \"contracts/ValidatorFactory.sol\":2236:2499  function setFeeManager(address _feeManager) external {... */\n      pop\n      jump\t// out\n        /* \"contracts/ValidatorFactory.sol\":1651:1812  function setVoter(address _voter) external {... */\n    tag_55:\n        /* \"contracts/ValidatorFactory.sol\":1723:1728  voter */\n      0x04\n      0x00\n      swap1\n      sload\n      swap1\n      0x0100\n      exp\n      swap1\n      div\n      0xffffffffffffffffffffffffffffffffffffffff\n      and\n        /* \"contracts/ValidatorFactory.sol\":1709:1728  msg.sender != voter */\n      0xffffffffffffffffffffffffffffffffffffffff\n      and\n        /* \"contracts/ValidatorFactory.sol\":1709:1719  msg.sender */\n      caller\n        /* \"contracts/ValidatorFactory.sol\":1709:1728  msg.sender != voter */\n      0xffffffffffffffffffffffffffffffffffffffff\n      and\n      eq\n        /* \"contracts/ValidatorFactory.sol\":1705:1747  if (msg.sender != voter) revert NotVoter() */\n      tag_124\n      jumpi\n        /* \"contracts/ValidatorFactory.sol\":1737:1747  NotVoter() */\n      mload(0x40)\n      0xc18384c100000000000000000000000000000000000000000000000000000000\n      dup2\n      mstore\n      0x04\n      add\n      mload(0x40)\n      dup1\n      swap2\n      sub\n      swap1\n      revert\n        /* \"contracts/ValidatorFactory.sol\":1705:1747  if (msg.sender != voter) revert NotVoter() */\n    tag_124:\n        /* \"contracts/ValidatorFactory.sol\":1766:1772  _voter */\n      dup1\n        /* \"contracts/ValidatorFactory.sol\":1758:1763  voter */\n      0x04\n      0x00\n        /* \"contracts/ValidatorFactory.sol\":1758:1772  voter = _voter */\n      0x0100\n      exp\n      dup2\n      sload\n      dup2\n      0xffffffffffffffffffffffffffffffffffffffff\n      mul\n      not\n      and\n      swap1\n      dup4\n      0xffffffffffffffffffffffffffffffffffffffff\n      and\n      mul\n      or\n      swap1\n      sstore\n      pop\n        /* \"contracts/ValidatorFactory.sol\":1788:1804  SetVoter(_voter) */\n      0xc6ff127433b785c51da9ae4088ee184c909b1a55b9afd82ae6c64224d3bc15d2\n        /* \"contracts/ValidatorFactory.sol\":1797:1803  _voter */\n      dup2\n        /* \"contracts/ValidatorFactory.sol\":1788:1804  SetVoter(_voter) */\n      mload(0x40)\n      tag_125\n      swap2\n      swap1\n      tag_49\n      jump\t// in\n    tag_125:\n      mload(0x40)\n      dup1\n      swap2\n      sub\n      swap1\n      log1\n        /* \"contracts/ValidatorFactory.sol\":1651:1812  function setVoter(address _voter) external {... */\n      pop\n      jump\t// out\n        /* \"contracts/ValidatorFactory.sol\":257:296  address public immutable implementation */\n    tag_57:\n      immutable(\"0x1a65db4f2ea95c4a38ef67ec9eb02656311df27569f1d2e5f15fb9ffe8498721\")\n      dup2\n      jump\t// out\n        /* \"contracts/ValidatorFactory.sol\":366:391  uint256 public depositFee */\n    tag_60:\n      sload(0x01)\n      dup2\n      jump\t// out\n        /* \"contracts/ValidatorFactory.sol\":3880:4622  function createValidator(address _token, address _owner) public returns (address validator) {... */\n    tag_65:\n        /* \"contracts/ValidatorFactory.sol\":3953:3970  address validator */\n      0x00\n        /* \"contracts/ValidatorFactory.sol\":4005:4006  0 */\n      0x00\n        /* \"contracts/ValidatorFactory.sol\":3987:4007  _token == address(0) */\n      0xffffffffffffffffffffffffffffffffffffffff\n      and\n        /* \"contracts/ValidatorFactory.sol\":3987:3993  _token */\n      dup4\n        /* \"contracts/ValidatorFactory.sol\":3987:4007  _token == address(0) */\n      0xffffffffffffffffffffffffffffffffffffffff\n      and\n      sub\n        /* \"contracts/ValidatorFactory.sol\":3983:4029  if (_token == address(0)) revert ZeroAddress() */\n      tag_127\n      jumpi\n        /* \"contracts/ValidatorFactory.sol\":4016:4029  ZeroAddress() */\n      mload(0x40)\n      0xd92e233d00000000000000000000000000000000000000000000000000000000\n      dup2\n      mstore\n      0x04\n      add\n      mload(0x40)\n      dup1\n      swap2\n      sub\n      swap1\n      revert\n        /* \"contracts/ValidatorFactory.sol\":3983:4029  if (_token == address(0)) revert ZeroAddress() */\n    tag_127:\n        /* \"contracts/ValidatorFactory.sol\":4088:4089  0 */\n      0x00\n        /* \"contracts/ValidatorFactory.sol\":4046:4090  _validatorList[_token][_owner] != address(0) */\n      0xffffffffffffffffffffffffffffffffffffffff\n      and\n        /* \"contracts/ValidatorFactory.sol\":4046:4060  _validatorList */\n      0x05\n        /* \"contracts/ValidatorFactory.sol\":4046:4068  _validatorList[_token] */\n      0x00\n        /* \"contracts/ValidatorFactory.sol\":4061:4067  _token */\n      dup6\n        /* \"contracts/ValidatorFactory.sol\":4046:4068  _validatorList[_token] */\n      0xffffffffffffffffffffffffffffffffffffffff\n      and\n      0xffffffffffffffffffffffffffffffffffffffff\n      and\n      dup2\n      mstore\n      0x20\n      add\n      swap1\n      dup2\n      mstore\n      0x20\n      add\n      0x00\n      keccak256\n        /* \"contracts/ValidatorFactory.sol\":4046:4076  _validatorList[_token][_owner] */\n      0x00\n        /* \"contracts/ValidatorFactory.sol\":4069:4075  _owner */\n      dup5\n        /* \"contracts/ValidatorFactory.sol\":4046:4076  _validatorList[_token][_owner] */\n      0xffffffffffffffffffffffffffffffffffffffff\n      and\n      0xffffffffffffffffffffffffffffffffffffffff\n      and\n      dup2\n      mstore\n      0x20\n      add\n      swap1\n      dup2\n      mstore\n      0x20\n      add\n      0x00\n      keccak256\n      0x00\n      swap1\n      sload\n      swap1\n      0x0100\n      exp\n      swap1\n      div\n      0xffffffffffffffffffffffffffffffffffffffff\n      and\n        /* \"contracts/ValidatorFactory.sol\":4046:4090  _validatorList[_token][_owner] != address(0) */\n      0xffffffffffffffffffffffffffffffffffffffff\n      and\n      eq\n        /* \"contracts/ValidatorFactory.sol\":4042:4118  if (_validatorList[_token][_owner] != address(0)) revert PoolAlreadyExists() */\n      tag_128\n      jumpi\n        /* \"contracts/ValidatorFactory.sol\":4099:4118  PoolAlreadyExists() */\n      mload(0x40)\n      0x0311932200000000000000000000000000000000000000000000000000000000\n      dup2\n      mstore\n      0x04\n      add\n      mload(0x40)\n      dup1\n      swap2\n      sub\n      swap1\n      revert\n        /* \"contracts/ValidatorFactory.sol\":4042:4118  if (_validatorList[_token][_owner] != address(0)) revert PoolAlreadyExists() */\n    tag_128:\n        /* \"contracts/ValidatorFactory.sol\":4131:4143  bytes32 salt */\n      0x00\n        /* \"contracts/ValidatorFactory.sol\":4173:4179  _token */\n      dup4\n        /* \"contracts/ValidatorFactory.sol\":4181:4187  _owner */\n      dup4\n        /* \"contracts/ValidatorFactory.sol\":4156:4188  abi.encodePacked(_token, _owner) */\n      add(0x20, mload(0x40))\n      tag_129\n      swap3\n      swap2\n      swap1\n      tag_130\n      jump\t// in\n    tag_129:\n      mload(0x40)\n      0x20\n      dup2\n      dup4\n      sub\n      sub\n      dup2\n      mstore\n      swap1\n      0x40\n      mstore\n        /* \"contracts/ValidatorFactory.sol\":4146:4189  keccak256(abi.encodePacked(_token, _owner)) */\n      dup1\n      mload\n      swap1\n      0x20\n      add\n      keccak256\n        /* \"contracts/ValidatorFactory.sol\":4131:4189  bytes32 salt = keccak256(abi.encodePacked(_token, _owner)) */\n      swap1\n      pop\n        /* \"contracts/ValidatorFactory.sol\":4267:4314  Clones.cloneDeterministic(implementation, salt) */\n      tag_131\n        /* \"contracts/ValidatorFactory.sol\":4293:4307  implementation */\n      immutable(\"0x1a65db4f2ea95c4a38ef67ec9eb02656311df27569f1d2e5f15fb9ffe8498721\")\n        /* \"contracts/ValidatorFactory.sol\":4309:4313  salt */\n      dup3\n        /* \"contracts/ValidatorFactory.sol\":4267:4292  Clones.cloneDeterministic */\n      tag_132\n        /* \"contracts/ValidatorFactory.sol\":4267:4314  Clones.cloneDeterministic(implementation, salt) */\n      jump\t// in\n    tag_131:\n        /* \"contracts/ValidatorFactory.sol\":4255:4314  validator = Clones.cloneDeterministic(implementation, salt) */\n      swap2\n      pop\n        /* \"contracts/ValidatorFactory.sol\":4346:4355  validator */\n      dup2\n        /* \"contracts/ValidatorFactory.sol\":4335:4367  IValidator(validator).initialize */\n      0xffffffffffffffffffffffffffffffffffffffff\n      and\n      0x485cc955\n        /* \"contracts/ValidatorFactory.sol\":4368:4374  _token */\n      dup6\n        /* \"contracts/ValidatorFactory.sol\":4376:4382  _owner */\n      dup6\n        /* \"contracts/ValidatorFactory.sol\":4335:4383  IValidator(validator).initialize(_token, _owner) */\n      mload(0x40)\n      dup4\n      0xffffffff\n      and\n      0xe0\n      shl\n      dup2\n      mstore\n      0x04\n      add\n      tag_133\n      swap3\n      swap2\n      swap1\n      tag_134\n      jump\t// in\n    tag_133:\n      0x00\n      mload(0x40)\n      dup1\n      dup4\n      sub\n      dup2\n      0x00\n      dup8\n      dup1\n      extcodesize\n      iszero\n      dup1\n      iszero\n      tag_135\n      jumpi\n      revert(0x00, 0x00)\n    tag_135:\n      pop\n      gas\n      call\n      iszero\n      dup1\n      iszero\n      tag_137\n      jumpi\n      returndatacopy(0x00, 0x00, returndatasize)\n      revert(0x00, returndatasize)\n    tag_137:\n      pop\n      pop\n      pop\n      pop\n        /* \"contracts/ValidatorFactory.sol\":4437:4446  validator */\n      dup2\n        /* \"contracts/ValidatorFactory.sol\":4404:4418  _validatorList */\n      0x05\n        /* \"contracts/ValidatorFactory.sol\":4404:4426  _validatorList[_token] */\n      0x00\n        /* \"contracts/ValidatorFactory.sol\":4419:4425  _token */\n      dup7\n        /* \"contracts/ValidatorFactory.sol\":4404:4426  _validatorList[_token] */\n      0xffffffffffffffffffffffffffffffffffffffff\n      and\n      0xffffffffffffffffffffffffffffffffffffffff\n      and\n      dup2\n      mstore\n      0x20\n      add\n      swap1\n      dup2\n      mstore\n      0x20\n      add\n      0x00\n      keccak256\n        /* \"contracts/ValidatorFactory.sol\":4404:4434  _validatorList[_token][_owner] */\n      0x00\n        /* \"contracts/ValidatorFactory.sol\":4427:4433  _owner */\n      dup6\n        /* \"contracts/ValidatorFactory.sol\":4404:4434  _validatorList[_token][_owner] */\n      0xffffffffffffffffffffffffffffffffffffffff\n      and\n      0xffffffffffffffffffffffffffffffffffffffff\n      and\n      dup2\n      mstore\n      0x20\n      add\n      swap1\n      dup2\n      mstore\n      0x20\n      add\n      0x00\n      keccak256\n      0x00\n        /* \"contracts/ValidatorFactory.sol\":4404:4446  _validatorList[_token][_owner] = validator */\n      0x0100\n      exp\n      dup2\n      sload\n      dup2\n      0xffffffffffffffffffffffffffffffffffffffff\n      mul\n      not\n      and\n      swap1\n      dup4\n      0xffffffffffffffffffffffffffffffffffffffff\n      and\n      mul\n      or\n      swap1\n      sstore\n      pop\n        /* \"contracts/ValidatorFactory.sol\":4459:4472  allValidators */\n      0x06\n        /* \"contracts/ValidatorFactory.sol\":4478:4487  validator */\n      dup3\n        /* \"contracts/ValidatorFactory.sol\":4459:4488  allValidators.push(validator) */\n      swap1\n      dup1\n      0x01\n      dup2\n      sload\n      add\n      dup1\n      dup3\n      sstore\n      dup1\n      swap2\n      pop\n      pop\n      0x01\n      swap1\n      sub\n      swap1\n      0x00\n      mstore\n      keccak256(0x00, 0x20)\n      add\n      0x00\n      swap1\n      swap2\n      swap1\n      swap2\n      swap1\n      swap2\n      0x0100\n      exp\n      dup2\n      sload\n      dup2\n      0xffffffffffffffffffffffffffffffffffffffff\n      mul\n      not\n      and\n      swap1\n      dup4\n      0xffffffffffffffffffffffffffffffffffffffff\n      and\n      mul\n      or\n      swap1\n      sstore\n      pop\n        /* \"contracts/ValidatorFactory.sol\":4527:4531  true */\n      0x01\n        /* \"contracts/ValidatorFactory.sol\":4501:4513  _isValidator */\n      0x07\n        /* \"contracts/ValidatorFactory.sol\":4501:4524  _isValidator[validator] */\n      0x00\n        /* \"contracts/ValidatorFactory.sol\":4514:4523  validator */\n      dup5\n        /* \"contracts/ValidatorFactory.sol\":4501:4524  _isValidator[validator] */\n      0xffffffffffffffffffffffffffffffffffffffff\n      and\n      0xffffffffffffffffffffffffffffffffffffffff\n      and\n      dup2\n      mstore\n      0x20\n      add\n      swap1\n      dup2\n      mstore\n      0x20\n      add\n      0x00\n      keccak256\n      0x00\n        /* \"contracts/ValidatorFactory.sol\":4501:4531  _isValidator[validator] = true */\n      0x0100\n      exp\n      dup2\n      sload\n      dup2\n      0xff\n      mul\n      not\n      and\n      swap1\n      dup4\n      iszero\n      iszero\n      mul\n      or\n      swap1\n      sstore\n      pop\n        /* \"contracts/ValidatorFactory.sol\":4574:4580  _owner */\n      dup3\n        /* \"contracts/ValidatorFactory.sol\":4549:4614  ValidatorCreated(_token, _owner, validator, allValidators.length) */\n      0xffffffffffffffffffffffffffffffffffffffff\n      and\n        /* \"contracts/ValidatorFactory.sol\":4566:4572  _token */\n      dup5\n        /* \"contracts/ValidatorFactory.sol\":4549:4614  ValidatorCreated(_token, _owner, validator, allValidators.length) */\n      0xffffffffffffffffffffffffffffffffffffffff\n      and\n      0x9a07b2753aaebe71b96e78f64ccced2e2b9ff13d98b3c7784285ef0c31631dbf\n        /* \"contracts/ValidatorFactory.sol\":4582:4591  validator */\n      dup5\n        /* \"contracts/ValidatorFactory.sol\":4593:4606  allValidators */\n      0x06\n        /* \"contracts/ValidatorFactory.sol\":4593:4613  allValidators.length */\n      dup1\n      sload\n      swap1\n      pop\n        /* \"contracts/ValidatorFactory.sol\":4549:4614  ValidatorCreated(_token, _owner, validator, allValidators.length) */\n      mload(0x40)\n      tag_139\n      swap3\n      swap2\n      swap1\n      tag_140\n      jump\t// in\n    tag_139:\n      mload(0x40)\n      dup1\n      swap2\n      sub\n      swap1\n      log3\n        /* \"contracts/ValidatorFactory.sol\":3972:4622  {... */\n      pop\n        /* \"contracts/ValidatorFactory.sol\":3880:4622  function createValidator(address _token, address _owner) public returns (address validator) {... */\n      swap3\n      swap2\n      pop\n      pop\n      jump\t// out\n        /* \"contracts/ValidatorFactory.sol\":3405:3833  function setClaimCustomFee(address validator, uint256 fee) external {... */\n    tag_69:\n        /* \"contracts/ValidatorFactory.sol\":3502:3512  feeManager */\n      0x03\n      0x00\n      swap1\n      sload\n      swap1\n      0x0100\n      exp\n      swap1\n      div\n      0xffffffffffffffffffffffffffffffffffffffff\n      and\n        /* \"contracts/ValidatorFactory.sol\":3488:3512  msg.sender != feeManager */\n      0xffffffffffffffffffffffffffffffffffffffff\n      and\n        /* \"contracts/ValidatorFactory.sol\":3488:3498  msg.sender */\n      caller\n        /* \"contracts/ValidatorFactory.sol\":3488:3512  msg.sender != feeManager */\n      0xffffffffffffffffffffffffffffffffffffffff\n      and\n      eq\n        /* \"contracts/ValidatorFactory.sol\":3484:3536  if (msg.sender != feeManager) revert NotFeeManager() */\n      tag_142\n      jumpi\n        /* \"contracts/ValidatorFactory.sol\":3521:3536  NotFeeManager() */\n      mload(0x40)\n      0xf5d267eb00000000000000000000000000000000000000000000000000000000\n      dup2\n      mstore\n      0x04\n      add\n      mload(0x40)\n      dup1\n      swap2\n      sub\n      swap1\n      revert\n        /* \"contracts/ValidatorFactory.sol\":3484:3536  if (msg.sender != feeManager) revert NotFeeManager() */\n    tag_142:\n        /* \"contracts/ValidatorFactory.sol\":462:465  300 */\n      0x012c\n        /* \"contracts/ValidatorFactory.sol\":3632:3635  fee */\n      dup2\n        /* \"contracts/ValidatorFactory.sol\":3632:3645  fee > MAX_FEE */\n      gt\n        /* \"contracts/ValidatorFactory.sol\":3628:3666  if (fee > MAX_FEE) revert FeeTooHigh() */\n      iszero\n      tag_143\n      jumpi\n        /* \"contracts/ValidatorFactory.sol\":3654:3666  FeeTooHigh() */\n      mload(0x40)\n      0xcd4e616700000000000000000000000000000000000000000000000000000000\n      dup2\n      mstore\n      0x04\n      add\n      mload(0x40)\n      dup1\n      swap2\n      sub\n      swap1\n      revert\n        /* \"contracts/ValidatorFactory.sol\":3628:3666  if (fee > MAX_FEE) revert FeeTooHigh() */\n    tag_143:\n        /* \"contracts/ValidatorFactory.sol\":3682:3694  _isValidator */\n      0x07\n        /* \"contracts/ValidatorFactory.sol\":3682:3705  _isValidator[validator] */\n      0x00\n        /* \"contracts/ValidatorFactory.sol\":3695:3704  validator */\n      dup4\n        /* \"contracts/ValidatorFactory.sol\":3682:3705  _isValidator[validator] */\n      0xffffffffffffffffffffffffffffffffffffffff\n      and\n      0xffffffffffffffffffffffffffffffffffffffff\n      and\n      dup2\n      mstore\n      0x20\n      add\n      swap1\n      dup2\n      mstore\n      0x20\n      add\n      0x00\n      keccak256\n      0x00\n      swap1\n      sload\n      swap1\n      0x0100\n      exp\n      swap1\n      div\n      0xff\n      and\n        /* \"contracts/ValidatorFactory.sol\":3677:3732  if (!_isValidator[validator]) revert InvalidValidator() */\n      tag_144\n      jumpi\n        /* \"contracts/ValidatorFactory.sol\":3714:3732  InvalidValidator() */\n      mload(0x40)\n      0x682a6e7c00000000000000000000000000000000000000000000000000000000\n      dup2\n      mstore\n      0x04\n      add\n      mload(0x40)\n      dup1\n      swap2\n      sub\n      swap1\n      revert\n        /* \"contracts/ValidatorFactory.sol\":3677:3732  if (!_isValidator[validator]) revert InvalidValidator() */\n    tag_144:\n        /* \"contracts/ValidatorFactory.sol\":3773:3776  fee */\n      dup1\n        /* \"contracts/ValidatorFactory.sol\":3745:3759  customClaimFee */\n      0x09\n        /* \"contracts/ValidatorFactory.sol\":3745:3770  customClaimFee[validator] */\n      0x00\n        /* \"contracts/ValidatorFactory.sol\":3760:3769  validator */\n      dup5\n        /* \"contracts/ValidatorFactory.sol\":3745:3770  customClaimFee[validator] */\n      0xffffffffffffffffffffffffffffffffffffffff\n      and\n      0xffffffffffffffffffffffffffffffffffffffff\n      and\n      dup2\n      mstore\n      0x20\n      add\n      swap1\n      dup2\n      mstore\n      0x20\n      add\n      0x00\n      keccak256\n        /* \"contracts/ValidatorFactory.sol\":3745:3776  customClaimFee[validator] = fee */\n      dup2\n      swap1\n      sstore\n      pop\n        /* \"contracts/ValidatorFactory.sol\":3810:3819  validator */\n      dup2\n        /* \"contracts/ValidatorFactory.sol\":3792:3825  SetClaimCustomFee(validator, fee) */\n      0xffffffffffffffffffffffffffffffffffffffff\n      and\n      0x6f6bd3c4b38df451f210a585e872b5a0b6de937fda37f0eb0c7731afb4391985\n        /* \"contracts/ValidatorFactory.sol\":3821:3824  fee */\n      dup3\n        /* \"contracts/ValidatorFactory.sol\":3792:3825  SetClaimCustomFee(validator, fee) */\n      mload(0x40)\n      tag_145\n      swap2\n      swap1\n      tag_33\n      jump\t// in\n    tag_145:\n      mload(0x40)\n      dup1\n      swap2\n      sub\n      swap1\n      log2\n        /* \"contracts/ValidatorFactory.sol\":3405:3833  function setClaimCustomFee(address validator, uint256 fee) external {... */\n      pop\n      pop\n      jump\t// out\n        /* \"contracts/ValidatorFactory.sol\":398:421  uint256 public claimFee */\n    tag_71:\n      sload(0x02)\n      dup2\n      jump\t// out\n        /* \"contracts/ValidatorFactory.sol\":332:353  address public pauser */\n    tag_74:\n      0x00\n      0x01\n      swap1\n      sload\n      swap1\n      0x0100\n      exp\n      swap1\n      div\n      0xffffffffffffffffffffffffffffffffffffffff\n      and\n      dup2\n      jump\t// out\n        /* \"contracts/ValidatorFactory.sol\":769:818  mapping(address => uint256) public customClaimFee */\n    tag_78:\n      mstore(0x20, 0x09)\n      dup1\n      0x00\n      mstore\n      keccak256(0x00, 0x40)\n      0x00\n      swap2\n      pop\n      swap1\n      pop\n      sload\n      dup2\n      jump\t// out\n        /* \"contracts/ValidatorFactory.sol\":305:325  bool public isPaused */\n    tag_81:\n      0x00\n      0x00\n      swap1\n      sload\n      swap1\n      0x0100\n      exp\n      swap1\n      div\n      0xff\n      and\n      dup2\n      jump\t// out\n        /* \"contracts/ValidatorFactory.sol\":428:465  uint256 public constant MAX_FEE = 300 */\n    tag_84:\n        /* \"contracts/ValidatorFactory.sol\":462:465  300 */\n      0x012c\n        /* \"contracts/ValidatorFactory.sol\":428:465  uint256 public constant MAX_FEE = 300 */\n      dup2\n      jump\t// out\n        /* \"contracts/ValidatorFactory.sol\":622:652  address[] public allValidators */\n    tag_89:\n      0x06\n      dup2\n      dup2\n      sload\n      dup2\n      lt\n      tag_146\n      jumpi\n      0x00\n      dup1\n      revert\n    tag_146:\n      swap1\n      0x00\n      mstore\n      keccak256(0x00, 0x20)\n      add\n      0x00\n      swap2\n      pop\n      sload\n      swap1\n      0x0100\n      exp\n      swap1\n      div\n      0xffffffffffffffffffffffffffffffffffffffff\n      and\n      dup2\n      jump\t// out\n        /* \"contracts/ValidatorFactory.sol\":1310:1448  function getValidator(address token, address owner) external view returns (address) {... */\n    tag_93:\n        /* \"contracts/ValidatorFactory.sol\":1385:1392  address */\n      0x00\n        /* \"contracts/ValidatorFactory.sol\":1412:1426  _validatorList */\n      0x05\n        /* \"contracts/ValidatorFactory.sol\":1412:1433  _validatorList[token] */\n      0x00\n        /* \"contracts/ValidatorFactory.sol\":1427:1432  token */\n      dup5\n        /* \"contracts/ValidatorFactory.sol\":1412:1433  _validatorList[token] */\n      0xffffffffffffffffffffffffffffffffffffffff\n      and\n      0xffffffffffffffffffffffffffffffffffffffff\n      and\n      dup2\n      mstore\n      0x20\n      add\n      swap1\n      dup2\n      mstore\n      0x20\n      add\n      0x00\n      keccak256\n        /* \"contracts/ValidatorFactory.sol\":1412:1440  _validatorList[token][owner] */\n      0x00\n        /* \"contracts/ValidatorFactory.sol\":1434:1439  owner */\n      dup4\n        /* \"contracts/ValidatorFactory.sol\":1412:1440  _validatorList[token][owner] */\n      0xffffffffffffffffffffffffffffffffffffffff\n      and\n      0xffffffffffffffffffffffffffffffffffffffff\n      and\n      dup2\n      mstore\n      0x20\n      add\n      swap1\n      dup2\n      mstore\n      0x20\n      add\n      0x00\n      keccak256\n      0x00\n      swap1\n      sload\n      swap1\n      0x0100\n      exp\n      swap1\n      div\n      0xffffffffffffffffffffffffffffffffffffffff\n      and\n        /* \"contracts/ValidatorFactory.sol\":1405:1440  return _validatorList[token][owner] */\n      swap1\n      pop\n        /* \"contracts/ValidatorFactory.sol\":1310:1448  function getValidator(address token, address owner) external view returns (address) {... */\n      swap3\n      swap2\n      pop\n      pop\n      jump\t// out\n        /* \"contracts/ValidatorFactory.sol\":2055:2228  function setPauseState(bool _state) external {... */\n    tag_98:\n        /* \"contracts/ValidatorFactory.sol\":2129:2135  pauser */\n      0x00\n      0x01\n      swap1\n      sload\n      swap1\n      0x0100\n      exp\n      swap1\n      div\n      0xffffffffffffffffffffffffffffffffffffffff\n      and\n        /* \"contracts/ValidatorFactory.sol\":2115:2135  msg.sender != pauser */\n      0xffffffffffffffffffffffffffffffffffffffff\n      and\n        /* \"contracts/ValidatorFactory.sol\":2115:2125  msg.sender */\n      caller\n        /* \"contracts/ValidatorFactory.sol\":2115:2135  msg.sender != pauser */\n      0xffffffffffffffffffffffffffffffffffffffff\n      and\n      eq\n        /* \"contracts/ValidatorFactory.sol\":2111:2155  if (msg.sender != pauser) revert NotPauser() */\n      tag_150\n      jumpi\n        /* \"contracts/ValidatorFactory.sol\":2144:2155  NotPauser() */\n      mload(0x40)\n      0x492f678100000000000000000000000000000000000000000000000000000000\n      dup2\n      mstore\n      0x04\n      add\n      mload(0x40)\n      dup1\n      swap2\n      sub\n      swap1\n      revert\n        /* \"contracts/ValidatorFactory.sol\":2111:2155  if (msg.sender != pauser) revert NotPauser() */\n    tag_150:\n        /* \"contracts/ValidatorFactory.sol\":2177:2183  _state */\n      dup1\n        /* \"contracts/ValidatorFactory.sol\":2166:2174  isPaused */\n      0x00\n      0x00\n        /* \"contracts/ValidatorFactory.sol\":2166:2183  isPaused = _state */\n      0x0100\n      exp\n      dup2\n      sload\n      dup2\n      0xff\n      mul\n      not\n      and\n      swap1\n      dup4\n      iszero\n      iszero\n      mul\n      or\n      swap1\n      sstore\n      pop\n        /* \"contracts/ValidatorFactory.sol\":2199:2220  SetPauseState(_state) */\n      0x0d76538efc408318a051137c2720a9e82902acdbd46b802d488b74ca3a09a116\n        /* \"contracts/ValidatorFactory.sol\":2213:2219  _state */\n      dup2\n        /* \"contracts/ValidatorFactory.sol\":2199:2220  SetPauseState(_state) */\n      mload(0x40)\n      tag_151\n      swap2\n      swap1\n      tag_45\n      jump\t// in\n    tag_151:\n      mload(0x40)\n      dup1\n      swap2\n      sub\n      swap1\n      log1\n        /* \"contracts/ValidatorFactory.sol\":2055:2228  function setPauseState(bool _state) external {... */\n      pop\n      jump\t// out\n        /* \"contracts/ValidatorFactory.sol\":480:505  address public feeManager */\n    tag_100:\n      0x03\n      0x00\n      swap1\n      sload\n      swap1\n      0x0100\n      exp\n      swap1\n      div\n      0xffffffffffffffffffffffffffffffffffffffff\n      and\n      dup2\n      jump\t// out\n        /* \"contracts/ValidatorFactory.sol\":2550:2877  function setFee(bool _type, uint256 _fee) external {... */\n    tag_105:\n        /* \"contracts/ValidatorFactory.sol\":2630:2640  feeManager */\n      0x03\n      0x00\n      swap1\n      sload\n      swap1\n      0x0100\n      exp\n      swap1\n      div\n      0xffffffffffffffffffffffffffffffffffffffff\n      and\n        /* \"contracts/ValidatorFactory.sol\":2616:2640  msg.sender != feeManager */\n      0xffffffffffffffffffffffffffffffffffffffff\n      and\n        /* \"contracts/ValidatorFactory.sol\":2616:2626  msg.sender */\n      caller\n        /* \"contracts/ValidatorFactory.sol\":2616:2640  msg.sender != feeManager */\n      0xffffffffffffffffffffffffffffffffffffffff\n      and\n      eq\n        /* \"contracts/ValidatorFactory.sol\":2612:2664  if (msg.sender != feeManager) revert NotFeeManager() */\n      tag_153\n      jumpi\n        /* \"contracts/ValidatorFactory.sol\":2649:2664  NotFeeManager() */\n      mload(0x40)\n      0xf5d267eb00000000000000000000000000000000000000000000000000000000\n      dup2\n      mstore\n      0x04\n      add\n      mload(0x40)\n      dup1\n      swap2\n      sub\n      swap1\n      revert\n        /* \"contracts/ValidatorFactory.sol\":2612:2664  if (msg.sender != feeManager) revert NotFeeManager() */\n    tag_153:\n        /* \"contracts/ValidatorFactory.sol\":462:465  300 */\n      0x012c\n        /* \"contracts/ValidatorFactory.sol\":2679:2683  _fee */\n      dup2\n        /* \"contracts/ValidatorFactory.sol\":2679:2693  _fee > MAX_FEE */\n      gt\n        /* \"contracts/ValidatorFactory.sol\":2675:2714  if (_fee > MAX_FEE) revert FeeTooHigh() */\n      iszero\n      tag_154\n      jumpi\n        /* \"contracts/ValidatorFactory.sol\":2702:2714  FeeTooHigh() */\n      mload(0x40)\n      0xcd4e616700000000000000000000000000000000000000000000000000000000\n      dup2\n      mstore\n      0x04\n      add\n      mload(0x40)\n      dup1\n      swap2\n      sub\n      swap1\n      revert\n        /* \"contracts/ValidatorFactory.sol\":2675:2714  if (_fee > MAX_FEE) revert FeeTooHigh() */\n    tag_154:\n        /* \"contracts/ValidatorFactory.sol\":2737:2738  0 */\n      0x00\n        /* \"contracts/ValidatorFactory.sol\":2729:2733  _fee */\n      dup2\n        /* \"contracts/ValidatorFactory.sol\":2729:2738  _fee == 0 */\n      sub\n        /* \"contracts/ValidatorFactory.sol\":2725:2756  if (_fee == 0) revert ZeroFee() */\n      tag_155\n      jumpi\n        /* \"contracts/ValidatorFactory.sol\":2747:2756  ZeroFee() */\n      mload(0x40)\n      0xaf13986d00000000000000000000000000000000000000000000000000000000\n      dup2\n      mstore\n      0x04\n      add\n      mload(0x40)\n      dup1\n      swap2\n      sub\n      swap1\n      revert\n        /* \"contracts/ValidatorFactory.sol\":2725:2756  if (_fee == 0) revert ZeroFee() */\n    tag_155:\n        /* \"contracts/ValidatorFactory.sol\":2771:2776  _type */\n      dup2\n        /* \"contracts/ValidatorFactory.sol\":2767:2870  if (_type) {... */\n      iszero\n      tag_156\n      jumpi\n        /* \"contracts/ValidatorFactory.sol\":2806:2810  _fee */\n      dup1\n        /* \"contracts/ValidatorFactory.sol\":2793:2803  depositFee */\n      0x01\n        /* \"contracts/ValidatorFactory.sol\":2793:2810  depositFee = _fee */\n      dup2\n      swap1\n      sstore\n      pop\n        /* \"contracts/ValidatorFactory.sol\":2767:2870  if (_type) {... */\n      jump(tag_157)\n    tag_156:\n        /* \"contracts/ValidatorFactory.sol\":2854:2858  _fee */\n      dup1\n        /* \"contracts/ValidatorFactory.sol\":2843:2851  claimFee */\n      0x02\n        /* \"contracts/ValidatorFactory.sol\":2843:2858  claimFee = _fee */\n      dup2\n      swap1\n      sstore\n      pop\n        /* \"contracts/ValidatorFactory.sol\":2767:2870  if (_type) {... */\n    tag_157:\n        /* \"contracts/ValidatorFactory.sol\":2550:2877  function setFee(bool _type, uint256 _fee) external {... */\n      pop\n      pop\n      jump\t// out\n        /* \"contracts/ValidatorFactory.sol\":1154:1263  function allValidatorsLength() external view returns (uint256) {... */\n    tag_107:\n        /* \"contracts/ValidatorFactory.sol\":1208:1215  uint256 */\n      0x00\n        /* \"contracts/ValidatorFactory.sol\":1235:1248  allValidators */\n      0x06\n        /* \"contracts/ValidatorFactory.sol\":1235:1255  allValidators.length */\n      dup1\n      sload\n      swap1\n      pop\n        /* \"contracts/ValidatorFactory.sol\":1228:1255  return allValidators.length */\n      swap1\n      pop\n        /* \"contracts/ValidatorFactory.sol\":1154:1263  function allValidatorsLength() external view returns (uint256) {... */\n      swap1\n      jump\t// out\n        /* \"@openzeppelin/contracts/proxy/Clones.sol\":2789:2958  function cloneDeterministic(address implementation, bytes32 salt) internal returns (address instance) {... */\n    tag_132:\n        /* \"@openzeppelin/contracts/proxy/Clones.sol\":2873:2889  address instance */\n      0x00\n        /* \"@openzeppelin/contracts/proxy/Clones.sol\":2908:2951  cloneDeterministic(implementation, salt, 0) */\n      tag_160\n        /* \"@openzeppelin/contracts/proxy/Clones.sol\":2927:2941  implementation */\n      dup4\n        /* \"@openzeppelin/contracts/proxy/Clones.sol\":2943:2947  salt */\n      dup4\n        /* \"@openzeppelin/contracts/proxy/Clones.sol\":2949:2950  0 */\n      0x00\n        /* \"@openzeppelin/contracts/proxy/Clones.sol\":2908:2926  cloneDeterministic */\n      tag_161\n        /* \"@openzeppelin/contracts/proxy/Clones.sol\":2908:2951  cloneDeterministic(implementation, salt, 0) */\n      jump\t// in\n    tag_160:\n        /* \"@openzeppelin/contracts/proxy/Clones.sol\":2901:2951  return cloneDeterministic(implementation, salt, 0) */\n      swap1\n      pop\n        /* \"@openzeppelin/contracts/proxy/Clones.sol\":2789:2958  function cloneDeterministic(address implementation, bytes32 salt) internal returns (address instance) {... */\n      swap3\n      swap2\n      pop\n      pop\n      jump\t// out\n        /* \"@openzeppelin/contracts/proxy/Clones.sol\":3384:4358  function cloneDeterministic(... */\n    tag_161:\n        /* \"@openzeppelin/contracts/proxy/Clones.sol\":3513:3529  address instance */\n      0x00\n        /* \"@openzeppelin/contracts/proxy/Clones.sol\":3569:3574  value */\n      dup2\n        /* \"@openzeppelin/contracts/proxy/Clones.sol\":3545:3566  address(this).balance */\n      selfbalance\n        /* \"@openzeppelin/contracts/proxy/Clones.sol\":3545:3574  address(this).balance < value */\n      lt\n        /* \"@openzeppelin/contracts/proxy/Clones.sol\":3541:3664  if (address(this).balance < value) {... */\n      iszero\n      tag_163\n      jumpi\n        /* \"@openzeppelin/contracts/proxy/Clones.sol\":3624:3645  address(this).balance */\n      selfbalance\n        /* \"@openzeppelin/contracts/proxy/Clones.sol\":3647:3652  value */\n      dup3\n        /* \"@openzeppelin/contracts/proxy/Clones.sol\":3597:3653  Errors.InsufficientBalance(address(this).balance, value) */\n      mload(0x40)\n      0xcf47918100000000000000000000000000000000000000000000000000000000\n      dup2\n      mstore\n      0x04\n      add\n      tag_164\n      swap3\n      swap2\n      swap1\n      tag_165\n      jump\t// in\n    tag_164:\n      mload(0x40)\n      dup1\n      swap2\n      sub\n      swap1\n      revert\n        /* \"@openzeppelin/contracts/proxy/Clones.sol\":3541:3664  if (address(this).balance < value) {... */\n    tag_163:\n        /* \"@openzeppelin/contracts/proxy/Clones.sol\":3950:3998  0x3d602d80600a3d3981f3363d3d373d3d3d363d73000000 */\n      0x3d602d80600a3d3981f3363d3d373d3d3d363d73000000\n        /* \"@openzeppelin/contracts/proxy/Clones.sol\":3932:3946  implementation */\n      dup5\n        /* \"@openzeppelin/contracts/proxy/Clones.sol\":3926:3930  0x60 */\n      0x60\n        /* \"@openzeppelin/contracts/proxy/Clones.sol\":3922:3947  shl(0x60, implementation) */\n      shl\n        /* \"@openzeppelin/contracts/proxy/Clones.sol\":3916:3920  0xe8 */\n      0xe8\n        /* \"@openzeppelin/contracts/proxy/Clones.sol\":3912:3948  shr(0xe8, shl(0x60, implementation)) */\n      shr\n        /* \"@openzeppelin/contracts/proxy/Clones.sol\":3909:3999  or(shr(0xe8, shl(0x60, implementation)), 0x3d602d80600a3d3981f3363d3d373d3d3d363d73000000) */\n      or\n        /* \"@openzeppelin/contracts/proxy/Clones.sol\":3903:3907  0x00 */\n      0x00\n        /* \"@openzeppelin/contracts/proxy/Clones.sol\":3896:4000  mstore(0x00, or(shr(0xe8, shl(0x60, implementation)), 0x3d602d80600a3d3981f3363d3d373d3d3d363d73000000)) */\n      mstore\n        /* \"@openzeppelin/contracts/proxy/Clones.sol\":4157:4189  0x5af43d82803e903d91602b57fd5bf3 */\n      0x5af43d82803e903d91602b57fd5bf3\n        /* \"@openzeppelin/contracts/proxy/Clones.sol\":4140:4154  implementation */\n      dup5\n        /* \"@openzeppelin/contracts/proxy/Clones.sol\":4134:4138  0x78 */\n      0x78\n        /* \"@openzeppelin/contracts/proxy/Clones.sol\":4130:4155  shl(0x78, implementation) */\n      shl\n        /* \"@openzeppelin/contracts/proxy/Clones.sol\":4127:4190  or(shl(0x78, implementation), 0x5af43d82803e903d91602b57fd5bf3) */\n      or\n        /* \"@openzeppelin/contracts/proxy/Clones.sol\":4121:4125  0x20 */\n      0x20\n        /* \"@openzeppelin/contracts/proxy/Clones.sol\":4114:4191  mstore(0x20, or(shl(0x78, implementation), 0x5af43d82803e903d91602b57fd5bf3)) */\n      mstore\n        /* \"@openzeppelin/contracts/proxy/Clones.sol\":4243:4247  salt */\n      dup3\n        /* \"@openzeppelin/contracts/proxy/Clones.sol\":4237:4241  0x37 */\n      0x37\n        /* \"@openzeppelin/contracts/proxy/Clones.sol\":4231:4235  0x09 */\n      0x09\n        /* \"@openzeppelin/contracts/proxy/Clones.sol\":4224:4229  value */\n      dup5\n        /* \"@openzeppelin/contracts/proxy/Clones.sol\":4216:4248  create2(value, 0x09, 0x37, salt) */\n      create2\n        /* \"@openzeppelin/contracts/proxy/Clones.sol\":4204:4248  instance := create2(value, 0x09, 0x37, salt) */\n      swap1\n      pop\n        /* \"@openzeppelin/contracts/proxy/Clones.sol\":4291:4292  0 */\n      0x00\n        /* \"@openzeppelin/contracts/proxy/Clones.sol\":4271:4293  instance == address(0) */\n      0xffffffffffffffffffffffffffffffffffffffff\n      and\n        /* \"@openzeppelin/contracts/proxy/Clones.sol\":4271:4279  instance */\n      dup2\n        /* \"@openzeppelin/contracts/proxy/Clones.sol\":4271:4293  instance == address(0) */\n      0xffffffffffffffffffffffffffffffffffffffff\n      and\n      sub\n        /* \"@openzeppelin/contracts/proxy/Clones.sol\":4267:4352  if (instance == address(0)) {... */\n      tag_166\n      jumpi\n        /* \"@openzeppelin/contracts/proxy/Clones.sol\":4316:4341  Errors.FailedDeployment() */\n      mload(0x40)\n      0xb06ebf3d00000000000000000000000000000000000000000000000000000000\n      dup2\n      mstore\n      0x04\n      add\n      mload(0x40)\n      dup1\n      swap2\n      sub\n      swap1\n      revert\n        /* \"@openzeppelin/contracts/proxy/Clones.sol\":4267:4352  if (instance == address(0)) {... */\n    tag_166:\n        /* \"@openzeppelin/contracts/proxy/Clones.sol\":3384:4358  function cloneDeterministic(... */\n      swap4\n      swap3\n      pop\n      pop\n      pop\n      jump\t// out\n        /* \"#utility.yul\":88:205   */\n    tag_168:\n        /* \"#utility.yul\":197:198   */\n      0x00\n        /* \"#utility.yul\":194:195   */\n      0x00\n        /* \"#utility.yul\":187:199   */\n      revert\n        /* \"#utility.yul\":334:460   */\n    tag_170:\n        /* \"#utility.yul\":371:378   */\n      0x00\n        /* \"#utility.yul\":411:453   */\n      0xffffffffffffffffffffffffffffffffffffffff\n        /* \"#utility.yul\":404:409   */\n      dup3\n        /* \"#utility.yul\":400:454   */\n      and\n        /* \"#utility.yul\":389:454   */\n      swap1\n      pop\n        /* \"#utility.yul\":334:460   */\n      swap2\n      swap1\n      pop\n      jump\t// out\n        /* \"#utility.yul\":466:562   */\n    tag_171:\n        /* \"#utility.yul\":503:510   */\n      0x00\n        /* \"#utility.yul\":532:556   */\n      tag_193\n        /* \"#utility.yul\":550:555   */\n      dup3\n        /* \"#utility.yul\":532:556   */\n      tag_170\n      jump\t// in\n    tag_193:\n        /* \"#utility.yul\":521:556   */\n      swap1\n      pop\n        /* \"#utility.yul\":466:562   */\n      swap2\n      swap1\n      pop\n      jump\t// out\n        /* \"#utility.yul\":568:690   */\n    tag_172:\n        /* \"#utility.yul\":641:665   */\n      tag_195\n        /* \"#utility.yul\":659:664   */\n      dup2\n        /* \"#utility.yul\":641:665   */\n      tag_171\n      jump\t// in\n    tag_195:\n        /* \"#utility.yul\":634:639   */\n      dup2\n        /* \"#utility.yul\":631:666   */\n      eq\n        /* \"#utility.yul\":621:684   */\n      tag_196\n      jumpi\n        /* \"#utility.yul\":680:681   */\n      0x00\n        /* \"#utility.yul\":677:678   */\n      0x00\n        /* \"#utility.yul\":670:682   */\n      revert\n        /* \"#utility.yul\":621:684   */\n    tag_196:\n        /* \"#utility.yul\":568:690   */\n      pop\n      jump\t// out\n        /* \"#utility.yul\":696:835   */\n    tag_173:\n        /* \"#utility.yul\":742:747   */\n      0x00\n        /* \"#utility.yul\":780:786   */\n      dup2\n        /* \"#utility.yul\":767:787   */\n      calldataload\n        /* \"#utility.yul\":758:787   */\n      swap1\n      pop\n        /* \"#utility.yul\":796:829   */\n      tag_198\n        /* \"#utility.yul\":823:828   */\n      dup2\n        /* \"#utility.yul\":796:829   */\n      tag_172\n      jump\t// in\n    tag_198:\n        /* \"#utility.yul\":696:835   */\n      swap3\n      swap2\n      pop\n      pop\n      jump\t// out\n        /* \"#utility.yul\":841:1170   */\n    tag_30:\n        /* \"#utility.yul\":900:906   */\n      0x00\n        /* \"#utility.yul\":949:951   */\n      0x20\n        /* \"#utility.yul\":937:946   */\n      dup3\n        /* \"#utility.yul\":928:935   */\n      dup5\n        /* \"#utility.yul\":924:947   */\n      sub\n        /* \"#utility.yul\":920:952   */\n      slt\n        /* \"#utility.yul\":917:1036   */\n      iszero\n      tag_200\n      jumpi\n        /* \"#utility.yul\":955:1034   */\n      tag_201\n      tag_168\n      jump\t// in\n    tag_201:\n        /* \"#utility.yul\":917:1036   */\n    tag_200:\n        /* \"#utility.yul\":1075:1076   */\n      0x00\n        /* \"#utility.yul\":1100:1153   */\n      tag_202\n        /* \"#utility.yul\":1145:1152   */\n      dup5\n        /* \"#utility.yul\":1136:1142   */\n      dup3\n        /* \"#utility.yul\":1125:1134   */\n      dup6\n        /* \"#utility.yul\":1121:1143   */\n      add\n        /* \"#utility.yul\":1100:1153   */\n      tag_173\n      jump\t// in\n    tag_202:\n        /* \"#utility.yul\":1090:1153   */\n      swap2\n      pop\n        /* \"#utility.yul\":1046:1163   */\n      pop\n        /* \"#utility.yul\":841:1170   */\n      swap3\n      swap2\n      pop\n      pop\n      jump\t// out\n        /* \"#utility.yul\":1176:1253   */\n    tag_174:\n        /* \"#utility.yul\":1213:1220   */\n      0x00\n        /* \"#utility.yul\":1242:1247   */\n      dup2\n        /* \"#utility.yul\":1231:1247   */\n      swap1\n      pop\n        /* \"#utility.yul\":1176:1253   */\n      swap2\n      swap1\n      pop\n      jump\t// out\n        /* \"#utility.yul\":1259:1377   */\n    tag_175:\n        /* \"#utility.yul\":1346:1370   */\n      tag_205\n        /* \"#utility.yul\":1364:1369   */\n      dup2\n        /* \"#utility.yul\":1346:1370   */\n      tag_174\n      jump\t// in\n    tag_205:\n        /* \"#utility.yul\":1341:1344   */\n      dup3\n        /* \"#utility.yul\":1334:1371   */\n      mstore\n        /* \"#utility.yul\":1259:1377   */\n      pop\n      pop\n      jump\t// out\n        /* \"#utility.yul\":1383:1605   */\n    tag_33:\n        /* \"#utility.yul\":1476:1480   */\n      0x00\n        /* \"#utility.yul\":1514:1516   */\n      0x20\n        /* \"#utility.yul\":1503:1512   */\n      dup3\n        /* \"#utility.yul\":1499:1517   */\n      add\n        /* \"#utility.yul\":1491:1517   */\n      swap1\n      pop\n        /* \"#utility.yul\":1527:1598   */\n      tag_207\n        /* \"#utility.yul\":1595:1596   */\n      0x00\n        /* \"#utility.yul\":1584:1593   */\n      dup4\n        /* \"#utility.yul\":1580:1597   */\n      add\n        /* \"#utility.yul\":1571:1577   */\n      dup5\n        /* \"#utility.yul\":1527:1598   */\n      tag_175\n      jump\t// in\n    tag_207:\n        /* \"#utility.yul\":1383:1605   */\n      swap3\n      swap2\n      pop\n      pop\n      jump\t// out\n        /* \"#utility.yul\":1611:1733   */\n    tag_176:\n        /* \"#utility.yul\":1684:1708   */\n      tag_209\n        /* \"#utility.yul\":1702:1707   */\n      dup2\n        /* \"#utility.yul\":1684:1708   */\n      tag_174\n      jump\t// in\n    tag_209:\n        /* \"#utility.yul\":1677:1682   */\n      dup2\n        /* \"#utility.yul\":1674:1709   */\n      eq\n        /* \"#utility.yul\":1664:1727   */\n      tag_210\n      jumpi\n        /* \"#utility.yul\":1723:1724   */\n      0x00\n        /* \"#utility.yul\":1720:1721   */\n      0x00\n        /* \"#utility.yul\":1713:1725   */\n      revert\n        /* \"#utility.yul\":1664:1727   */\n    tag_210:\n        /* \"#utility.yul\":1611:1733   */\n      pop\n      jump\t// out\n        /* \"#utility.yul\":1739:1878   */\n    tag_177:\n        /* \"#utility.yul\":1785:1790   */\n      0x00\n        /* \"#utility.yul\":1823:1829   */\n      dup2\n        /* \"#utility.yul\":1810:1830   */\n      calldataload\n        /* \"#utility.yul\":1801:1830   */\n      swap1\n      pop\n        /* \"#utility.yul\":1839:1872   */\n      tag_212\n        /* \"#utility.yul\":1866:1871   */\n      dup2\n        /* \"#utility.yul\":1839:1872   */\n      tag_176\n      jump\t// in\n    tag_212:\n        /* \"#utility.yul\":1739:1878   */\n      swap3\n      swap2\n      pop\n      pop\n      jump\t// out\n        /* \"#utility.yul\":1884:2358   */\n    tag_36:\n        /* \"#utility.yul\":1952:1958   */\n      0x00\n        /* \"#utility.yul\":1960:1966   */\n      0x00\n        /* \"#utility.yul\":2009:2011   */\n      0x40\n        /* \"#utility.yul\":1997:2006   */\n      dup4\n        /* \"#utility.yul\":1988:1995   */\n      dup6\n        /* \"#utility.yul\":1984:2007   */\n      sub\n        /* \"#utility.yul\":1980:2012   */\n      slt\n        /* \"#utility.yul\":1977:2096   */\n      iszero\n      tag_214\n      jumpi\n        /* \"#utility.yul\":2015:2094   */\n      tag_215\n      tag_168\n      jump\t// in\n    tag_215:\n        /* \"#utility.yul\":1977:2096   */\n    tag_214:\n        /* \"#utility.yul\":2135:2136   */\n      0x00\n        /* \"#utility.yul\":2160:2213   */\n      tag_216\n        /* \"#utility.yul\":2205:2212   */\n      dup6\n        /* \"#utility.yul\":2196:2202   */\n      dup3\n        /* \"#utility.yul\":2185:2194   */\n      dup7\n        /* \"#utility.yul\":2181:2203   */\n      add\n        /* \"#utility.yul\":2160:2213   */\n      tag_173\n      jump\t// in\n    tag_216:\n        /* \"#utility.yul\":2150:2213   */\n      swap3\n      pop\n        /* \"#utility.yul\":2106:2223   */\n      pop\n        /* \"#utility.yul\":2262:2264   */\n      0x20\n        /* \"#utility.yul\":2288:2341   */\n      tag_217\n        /* \"#utility.yul\":2333:2340   */\n      dup6\n        /* \"#utility.yul\":2324:2330   */\n      dup3\n        /* \"#utility.yul\":2313:2322   */\n      dup7\n        /* \"#utility.yul\":2309:2331   */\n      add\n        /* \"#utility.yul\":2288:2341   */\n      tag_177\n      jump\t// in\n    tag_217:\n        /* \"#utility.yul\":2278:2341   */\n      swap2\n      pop\n        /* \"#utility.yul\":2233:2351   */\n      pop\n        /* \"#utility.yul\":1884:2358   */\n      swap3\n      pop\n      swap3\n      swap1\n      pop\n      jump\t// out\n        /* \"#utility.yul\":2364:2454   */\n    tag_178:\n        /* \"#utility.yul\":2398:2405   */\n      0x00\n        /* \"#utility.yul\":2441:2446   */\n      dup2\n        /* \"#utility.yul\":2434:2447   */\n      iszero\n        /* \"#utility.yul\":2427:2448   */\n      iszero\n        /* \"#utility.yul\":2416:2448   */\n      swap1\n      pop\n        /* \"#utility.yul\":2364:2454   */\n      swap2\n      swap1\n      pop\n      jump\t// out\n        /* \"#utility.yul\":2460:2569   */\n    tag_179:\n        /* \"#utility.yul\":2541:2562   */\n      tag_220\n        /* \"#utility.yul\":2556:2561   */\n      dup2\n        /* \"#utility.yul\":2541:2562   */\n      tag_178\n      jump\t// in\n    tag_220:\n        /* \"#utility.yul\":2536:2539   */\n      dup3\n        /* \"#utility.yul\":2529:2563   */\n      mstore\n        /* \"#utility.yul\":2460:2569   */\n      pop\n      pop\n      jump\t// out\n        /* \"#utility.yul\":2575:2785   */\n    tag_45:\n        /* \"#utility.yul\":2662:2666   */\n      0x00\n        /* \"#utility.yul\":2700:2702   */\n      0x20\n        /* \"#utility.yul\":2689:2698   */\n      dup3\n        /* \"#utility.yul\":2685:2703   */\n      add\n        /* \"#utility.yul\":2677:2703   */\n      swap1\n      pop\n        /* \"#utility.yul\":2713:2778   */\n      tag_222\n        /* \"#utility.yul\":2775:2776   */\n      0x00\n        /* \"#utility.yul\":2764:2773   */\n      dup4\n        /* \"#utility.yul\":2760:2777   */\n      add\n        /* \"#utility.yul\":2751:2757   */\n      dup5\n        /* \"#utility.yul\":2713:2778   */\n      tag_179\n      jump\t// in\n    tag_222:\n        /* \"#utility.yul\":2575:2785   */\n      swap3\n      swap2\n      pop\n      pop\n      jump\t// out\n        /* \"#utility.yul\":2791:2909   */\n    tag_180:\n        /* \"#utility.yul\":2878:2902   */\n      tag_224\n        /* \"#utility.yul\":2896:2901   */\n      dup2\n        /* \"#utility.yul\":2878:2902   */\n      tag_171\n      jump\t// in\n    tag_224:\n        /* \"#utility.yul\":2873:2876   */\n      dup3\n        /* \"#utility.yul\":2866:2903   */\n      mstore\n        /* \"#utility.yul\":2791:2909   */\n      pop\n      pop\n      jump\t// out\n        /* \"#utility.yul\":2915:3137   */\n    tag_49:\n        /* \"#utility.yul\":3008:3012   */\n      0x00\n        /* \"#utility.yul\":3046:3048   */\n      0x20\n        /* \"#utility.yul\":3035:3044   */\n      dup3\n        /* \"#utility.yul\":3031:3049   */\n      add\n        /* \"#utility.yul\":3023:3049   */\n      swap1\n      pop\n        /* \"#utility.yul\":3059:3130   */\n      tag_226\n        /* \"#utility.yul\":3127:3128   */\n      0x00\n        /* \"#utility.yul\":3116:3125   */\n      dup4\n        /* \"#utility.yul\":3112:3129   */\n      add\n        /* \"#utility.yul\":3103:3109   */\n      dup5\n        /* \"#utility.yul\":3059:3130   */\n      tag_180\n      jump\t// in\n    tag_226:\n        /* \"#utility.yul\":2915:3137   */\n      swap3\n      swap2\n      pop\n      pop\n      jump\t// out\n        /* \"#utility.yul\":3143:3617   */\n    tag_64:\n        /* \"#utility.yul\":3211:3217   */\n      0x00\n        /* \"#utility.yul\":3219:3225   */\n      0x00\n        /* \"#utility.yul\":3268:3270   */\n      0x40\n        /* \"#utility.yul\":3256:3265   */\n      dup4\n        /* \"#utility.yul\":3247:3254   */\n      dup6\n        /* \"#utility.yul\":3243:3266   */\n      sub\n        /* \"#utility.yul\":3239:3271   */\n      slt\n        /* \"#utility.yul\":3236:3355   */\n      iszero\n      tag_228\n      jumpi\n        /* \"#utility.yul\":3274:3353   */\n      tag_229\n      tag_168\n      jump\t// in\n    tag_229:\n        /* \"#utility.yul\":3236:3355   */\n    tag_228:\n        /* \"#utility.yul\":3394:3395   */\n      0x00\n        /* \"#utility.yul\":3419:3472   */\n      tag_230\n        /* \"#utility.yul\":3464:3471   */\n      dup6\n        /* \"#utility.yul\":3455:3461   */\n      dup3\n        /* \"#utility.yul\":3444:3453   */\n      dup7\n        /* \"#utility.yul\":3440:3462   */\n      add\n        /* \"#utility.yul\":3419:3472   */\n      tag_173\n      jump\t// in\n    tag_230:\n        /* \"#utility.yul\":3409:3472   */\n      swap3\n      pop\n        /* \"#utility.yul\":3365:3482   */\n      pop\n        /* \"#utility.yul\":3521:3523   */\n      0x20\n        /* \"#utility.yul\":3547:3600   */\n      tag_231\n        /* \"#utility.yul\":3592:3599   */\n      dup6\n        /* \"#utility.yul\":3583:3589   */\n      dup3\n        /* \"#utility.yul\":3572:3581   */\n      dup7\n        /* \"#utility.yul\":3568:3590   */\n      add\n        /* \"#utility.yul\":3547:3600   */\n      tag_173\n      jump\t// in\n    tag_231:\n        /* \"#utility.yul\":3537:3600   */\n      swap2\n      pop\n        /* \"#utility.yul\":3492:3610   */\n      pop\n        /* \"#utility.yul\":3143:3617   */\n      swap3\n      pop\n      swap3\n      swap1\n      pop\n      jump\t// out\n        /* \"#utility.yul\":3623:3952   */\n    tag_88:\n        /* \"#utility.yul\":3682:3688   */\n      0x00\n        /* \"#utility.yul\":3731:3733   */\n      0x20\n        /* \"#utility.yul\":3719:3728   */\n      dup3\n        /* \"#utility.yul\":3710:3717   */\n      dup5\n        /* \"#utility.yul\":3706:3729   */\n      sub\n        /* \"#utility.yul\":3702:3734   */\n      slt\n        /* \"#utility.yul\":3699:3818   */\n      iszero\n      tag_233\n      jumpi\n        /* \"#utility.yul\":3737:3816   */\n      tag_234\n      tag_168\n      jump\t// in\n    tag_234:\n        /* \"#utility.yul\":3699:3818   */\n    tag_233:\n        /* \"#utility.yul\":3857:3858   */\n      0x00\n        /* \"#utility.yul\":3882:3935   */\n      tag_235\n        /* \"#utility.yul\":3927:3934   */\n      dup5\n        /* \"#utility.yul\":3918:3924   */\n      dup3\n        /* \"#utility.yul\":3907:3916   */\n      dup6\n        /* \"#utility.yul\":3903:3925   */\n      add\n        /* \"#utility.yul\":3882:3935   */\n      tag_177\n      jump\t// in\n    tag_235:\n        /* \"#utility.yul\":3872:3935   */\n      swap2\n      pop\n        /* \"#utility.yul\":3828:3945   */\n      pop\n        /* \"#utility.yul\":3623:3952   */\n      swap3\n      swap2\n      pop\n      pop\n      jump\t// out\n        /* \"#utility.yul\":3958:4074   */\n    tag_181:\n        /* \"#utility.yul\":4028:4049   */\n      tag_237\n        /* \"#utility.yul\":4043:4048   */\n      dup2\n        /* \"#utility.yul\":4028:4049   */\n      tag_178\n      jump\t// in\n    tag_237:\n        /* \"#utility.yul\":4021:4026   */\n      dup2\n        /* \"#utility.yul\":4018:4050   */\n      eq\n        /* \"#utility.yul\":4008:4068   */\n      tag_238\n      jumpi\n        /* \"#utility.yul\":4064:4065   */\n      0x00\n        /* \"#utility.yul\":4061:4062   */\n      0x00\n        /* \"#utility.yul\":4054:4066   */\n      revert\n        /* \"#utility.yul\":4008:4068   */\n    tag_238:\n        /* \"#utility.yul\":3958:4074   */\n      pop\n      jump\t// out\n        /* \"#utility.yul\":4080:4213   */\n    tag_182:\n        /* \"#utility.yul\":4123:4128   */\n      0x00\n        /* \"#utility.yul\":4161:4167   */\n      dup2\n        /* \"#utility.yul\":4148:4168   */\n      calldataload\n        /* \"#utility.yul\":4139:4168   */\n      swap1\n      pop\n        /* \"#utility.yul\":4177:4207   */\n      tag_240\n        /* \"#utility.yul\":4201:4206   */\n      dup2\n        /* \"#utility.yul\":4177:4207   */\n      tag_181\n      jump\t// in\n    tag_240:\n        /* \"#utility.yul\":4080:4213   */\n      swap3\n      swap2\n      pop\n      pop\n      jump\t// out\n        /* \"#utility.yul\":4219:4542   */\n    tag_97:\n        /* \"#utility.yul\":4275:4281   */\n      0x00\n        /* \"#utility.yul\":4324:4326   */\n      0x20\n        /* \"#utility.yul\":4312:4321   */\n      dup3\n        /* \"#utility.yul\":4303:4310   */\n      dup5\n        /* \"#utility.yul\":4299:4322   */\n      sub\n        /* \"#utility.yul\":4295:4327   */\n      slt\n        /* \"#utility.yul\":4292:4411   */\n      iszero\n      tag_242\n      jumpi\n        /* \"#utility.yul\":4330:4409   */\n      tag_243\n      tag_168\n      jump\t// in\n    tag_243:\n        /* \"#utility.yul\":4292:4411   */\n    tag_242:\n        /* \"#utility.yul\":4450:4451   */\n      0x00\n        /* \"#utility.yul\":4475:4525   */\n      tag_244\n        /* \"#utility.yul\":4517:4524   */\n      dup5\n        /* \"#utility.yul\":4508:4514   */\n      dup3\n        /* \"#utility.yul\":4497:4506   */\n      dup6\n        /* \"#utility.yul\":4493:4515   */\n      add\n        /* \"#utility.yul\":4475:4525   */\n      tag_182\n      jump\t// in\n    tag_244:\n        /* \"#utility.yul\":4465:4525   */\n      swap2\n      pop\n        /* \"#utility.yul\":4421:4535   */\n      pop\n        /* \"#utility.yul\":4219:4542   */\n      swap3\n      swap2\n      pop\n      pop\n      jump\t// out\n        /* \"#utility.yul\":4548:5016   */\n    tag_104:\n        /* \"#utility.yul\":4613:4619   */\n      0x00\n        /* \"#utility.yul\":4621:4627   */\n      0x00\n        /* \"#utility.yul\":4670:4672   */\n      0x40\n        /* \"#utility.yul\":4658:4667   */\n      dup4\n        /* \"#utility.yul\":4649:4656   */\n      dup6\n        /* \"#utility.yul\":4645:4668   */\n      sub\n        /* \"#utility.yul\":4641:4673   */\n      slt\n        /* \"#utility.yul\":4638:4757   */\n      iszero\n      tag_246\n      jumpi\n        /* \"#utility.yul\":4676:4755   */\n      tag_247\n      tag_168\n      jump\t// in\n    tag_247:\n        /* \"#utility.yul\":4638:4757   */\n    tag_246:\n        /* \"#utility.yul\":4796:4797   */\n      0x00\n        /* \"#utility.yul\":4821:4871   */\n      tag_248\n        /* \"#utility.yul\":4863:4870   */\n      dup6\n        /* \"#utility.yul\":4854:4860   */\n      dup3\n        /* \"#utility.yul\":4843:4852   */\n      dup7\n        /* \"#utility.yul\":4839:4861   */\n      add\n        /* \"#utility.yul\":4821:4871   */\n      tag_182\n      jump\t// in\n    tag_248:\n        /* \"#utility.yul\":4811:4871   */\n      swap3\n      pop\n        /* \"#utility.yul\":4767:4881   */\n      pop\n        /* \"#utility.yul\":4920:4922   */\n      0x20\n        /* \"#utility.yul\":4946:4999   */\n      tag_249\n        /* \"#utility.yul\":4991:4998   */\n      dup6\n        /* \"#utility.yul\":4982:4988   */\n      dup3\n        /* \"#utility.yul\":4971:4980   */\n      dup7\n        /* \"#utility.yul\":4967:4989   */\n      add\n        /* \"#utility.yul\":4946:4999   */\n      tag_177\n      jump\t// in\n    tag_249:\n        /* \"#utility.yul\":4936:4999   */\n      swap2\n      pop\n        /* \"#utility.yul\":4891:5009   */\n      pop\n        /* \"#utility.yul\":4548:5016   */\n      swap3\n      pop\n      swap3\n      swap1\n      pop\n      jump\t// out\n        /* \"#utility.yul\":5022:5116   */\n    tag_183:\n        /* \"#utility.yul\":5055:5063   */\n      0x00\n        /* \"#utility.yul\":5103:5108   */\n      dup2\n        /* \"#utility.yul\":5099:5101   */\n      0x60\n        /* \"#utility.yul\":5095:5109   */\n      shl\n        /* \"#utility.yul\":5074:5109   */\n      swap1\n      pop\n        /* \"#utility.yul\":5022:5116   */\n      swap2\n      swap1\n      pop\n      jump\t// out\n        /* \"#utility.yul\":5122:5216   */\n    tag_184:\n        /* \"#utility.yul\":5161:5168   */\n      0x00\n        /* \"#utility.yul\":5190:5210   */\n      tag_252\n        /* \"#utility.yul\":5204:5209   */\n      dup3\n        /* \"#utility.yul\":5190:5210   */\n      tag_183\n      jump\t// in\n    tag_252:\n        /* \"#utility.yul\":5179:5210   */\n      swap1\n      pop\n        /* \"#utility.yul\":5122:5216   */\n      swap2\n      swap1\n      pop\n      jump\t// out\n        /* \"#utility.yul\":5222:5322   */\n    tag_185:\n        /* \"#utility.yul\":5261:5268   */\n      0x00\n        /* \"#utility.yul\":5290:5316   */\n      tag_254\n        /* \"#utility.yul\":5310:5315   */\n      dup3\n        /* \"#utility.yul\":5290:5316   */\n      tag_184\n      jump\t// in\n    tag_254:\n        /* \"#utility.yul\":5279:5316   */\n      swap1\n      pop\n        /* \"#utility.yul\":5222:5322   */\n      swap2\n      swap1\n      pop\n      jump\t// out\n        /* \"#utility.yul\":5328:5485   */\n    tag_186:\n        /* \"#utility.yul\":5433:5478   */\n      tag_256\n        /* \"#utility.yul\":5453:5477   */\n      tag_257\n        /* \"#utility.yul\":5471:5476   */\n      dup3\n        /* \"#utility.yul\":5453:5477   */\n      tag_171\n      jump\t// in\n    tag_257:\n        /* \"#utility.yul\":5433:5478   */\n      tag_185\n      jump\t// in\n    tag_256:\n        /* \"#utility.yul\":5428:5431   */\n      dup3\n        /* \"#utility.yul\":5421:5479   */\n      mstore\n        /* \"#utility.yul\":5328:5485   */\n      pop\n      pop\n      jump\t// out\n        /* \"#utility.yul\":5491:5888   */\n    tag_130:\n        /* \"#utility.yul\":5631:5634   */\n      0x00\n        /* \"#utility.yul\":5646:5721   */\n      tag_259\n        /* \"#utility.yul\":5717:5720   */\n      dup3\n        /* \"#utility.yul\":5708:5714   */\n      dup6\n        /* \"#utility.yul\":5646:5721   */\n      tag_186\n      jump\t// in\n    tag_259:\n        /* \"#utility.yul\":5746:5748   */\n      0x14\n        /* \"#utility.yul\":5741:5744   */\n      dup3\n        /* \"#utility.yul\":5737:5749   */\n      add\n        /* \"#utility.yul\":5730:5749   */\n      swap2\n      pop\n        /* \"#utility.yul\":5759:5834   */\n      tag_260\n        /* \"#utility.yul\":5830:5833   */\n      dup3\n        /* \"#utility.yul\":5821:5827   */\n      dup5\n        /* \"#utility.yul\":5759:5834   */\n      tag_186\n      jump\t// in\n    tag_260:\n        /* \"#utility.yul\":5859:5861   */\n      0x14\n        /* \"#utility.yul\":5854:5857   */\n      dup3\n        /* \"#utility.yul\":5850:5862   */\n      add\n        /* \"#utility.yul\":5843:5862   */\n      swap2\n      pop\n        /* \"#utility.yul\":5879:5882   */\n      dup2\n        /* \"#utility.yul\":5872:5882   */\n      swap1\n      pop\n        /* \"#utility.yul\":5491:5888   */\n      swap4\n      swap3\n      pop\n      pop\n      pop\n      jump\t// out\n        /* \"#utility.yul\":5894:6226   */\n    tag_134:\n        /* \"#utility.yul\":6015:6019   */\n      0x00\n        /* \"#utility.yul\":6053:6055   */\n      0x40\n        /* \"#utility.yul\":6042:6051   */\n      dup3\n        /* \"#utility.yul\":6038:6056   */\n      add\n        /* \"#utility.yul\":6030:6056   */\n      swap1\n      pop\n        /* \"#utility.yul\":6066:6137   */\n      tag_262\n        /* \"#utility.yul\":6134:6135   */\n      0x00\n        /* \"#utility.yul\":6123:6132   */\n      dup4\n        /* \"#utility.yul\":6119:6136   */\n      add\n        /* \"#utility.yul\":6110:6116   */\n      dup6\n        /* \"#utility.yul\":6066:6137   */\n      tag_180\n      jump\t// in\n    tag_262:\n        /* \"#utility.yul\":6147:6219   */\n      tag_263\n        /* \"#utility.yul\":6215:6217   */\n      0x20\n        /* \"#utility.yul\":6204:6213   */\n      dup4\n        /* \"#utility.yul\":6200:6218   */\n      add\n        /* \"#utility.yul\":6191:6197   */\n      dup5\n        /* \"#utility.yul\":6147:6219   */\n      tag_180\n      jump\t// in\n    tag_263:\n        /* \"#utility.yul\":5894:6226   */\n      swap4\n      swap3\n      pop\n      pop\n      pop\n      jump\t// out\n        /* \"#utility.yul\":6232:6564   */\n    tag_140:\n        /* \"#utility.yul\":6353:6357   */\n      0x00\n        /* \"#utility.yul\":6391:6393   */\n      0x40\n        /* \"#utility.yul\":6380:6389   */\n      dup3\n        /* \"#utility.yul\":6376:6394   */\n      add\n        /* \"#utility.yul\":6368:6394   */\n      swap1\n      pop\n        /* \"#utility.yul\":6404:6475   */\n      tag_265\n        /* \"#utility.yul\":6472:6473   */\n      0x00\n        /* \"#utility.yul\":6461:6470   */\n      dup4\n        /* \"#utility.yul\":6457:6474   */\n      add\n        /* \"#utility.yul\":6448:6454   */\n      dup6\n        /* \"#utility.yul\":6404:6475   */\n      tag_180\n      jump\t// in\n    tag_265:\n        /* \"#utility.yul\":6485:6557   */\n      tag_266\n        /* \"#utility.yul\":6553:6555   */\n      0x20\n        /* \"#utility.yul\":6542:6551   */\n      dup4\n        /* \"#utility.yul\":6538:6556   */\n      add\n        /* \"#utility.yul\":6529:6535   */\n      dup5\n        /* \"#utility.yul\":6485:6557   */\n      tag_175\n      jump\t// in\n    tag_266:\n        /* \"#utility.yul\":6232:6564   */\n      swap4\n      swap3\n      pop\n      pop\n      pop\n      jump\t// out\n        /* \"#utility.yul\":6570:6902   */\n    tag_165:\n        /* \"#utility.yul\":6691:6695   */\n      0x00\n        /* \"#utility.yul\":6729:6731   */\n      0x40\n        /* \"#utility.yul\":6718:6727   */\n      dup3\n        /* \"#utility.yul\":6714:6732   */\n      add\n        /* \"#utility.yul\":6706:6732   */\n      swap1\n      pop\n        /* \"#utility.yul\":6742:6813   */\n      tag_268\n        /* \"#utility.yul\":6810:6811   */\n      0x00\n        /* \"#utility.yul\":6799:6808   */\n      dup4\n        /* \"#utility.yul\":6795:6812   */\n      add\n        /* \"#utility.yul\":6786:6792   */\n      dup6\n        /* \"#utility.yul\":6742:6813   */\n      tag_175\n      jump\t// in\n    tag_268:\n        /* \"#utility.yul\":6823:6895   */\n      tag_269\n        /* \"#utility.yul\":6891:6893   */\n      0x20\n        /* \"#utility.yul\":6880:6889   */\n      dup4\n        /* \"#utility.yul\":6876:6894   */\n      add\n        /* \"#utility.yul\":6867:6873   */\n      dup5\n        /* \"#utility.yul\":6823:6895   */\n      tag_175\n      jump\t// in\n    tag_269:\n        /* \"#utility.yul\":6570:6902   */\n      swap4\n      swap3\n      pop\n      pop\n      pop\n      jump\t// out\n\n    auxdata: 0xa264697066735822122038ee56af302644c5c3219a67ba759a7e38127d6270da290af901a7e77178f26e64736f6c634300081c0033\n}\n",
				"bytecode": {
					"linkReferences": {},
					"object": "60a060405234801561000f575f5ffd5b50604051611a51380380611a51833981810160405281019061003191906101b1565b8073ffffffffffffffffffffffffffffffffffffffff1660808173ffffffffffffffffffffffffffffffffffffffff16815250503360045f6101000a81548173ffffffffffffffffffffffffffffffffffffffff021916908373ffffffffffffffffffffffffffffffffffffffff160217905550335f60016101000a81548173ffffffffffffffffffffffffffffffffffffffff021916908373ffffffffffffffffffffffffffffffffffffffff1602179055503360035f6101000a81548173ffffffffffffffffffffffffffffffffffffffff021916908373ffffffffffffffffffffffffffffffffffffffff1602179055505f5f5f6101000a81548160ff0219169083151502179055506005600181905550601e600281905550506101dc565b5f5ffd5b5f73ffffffffffffffffffffffffffffffffffffffff82169050919050565b5f61018082610157565b9050919050565b61019081610176565b811461019a575f5ffd5b50565b5f815190506101ab81610187565b92915050565b5f602082840312156101c6576101c5610153565b5b5f6101d38482850161019d565b91505092915050565b6080516118566101fb5f395f8181610a640152610c1f01526118565ff3fe608060405234801561000f575f5ffd5b5060043610610140575f3560e01c806399d32fc4116100b6578063bcecf81b1161007a578063bcecf81b14610362578063cd1a0dd214610392578063cdb88ad1146103c2578063d0fb0203146103de578063e1f76b44146103fc578063f64ee7651461041857610140565b806399d32fc4146102ba5780639fd0506d146102d8578063a74adceb146102f6578063b187bd2614610326578063bc063e1a1461034457610140565b8063472d35b911610108578063472d35b9146101fa5780634bc2a657146102165780635c60da1b1461023257806367a5279314610250578063830e4eef1461026e578063984fa01f1461029e57610140565b806328a6b3ff146101445780632c3de946146101745780632d88af4a1461019057806338ed1793146101ac57806346c96aac146101dc575b5f5ffd5b61015e60048036038101906101599190611520565b610436565b60405161016b9190611563565b60405180910390f35b61018e600480360381019061018991906115a6565b61044b565b005b6101aa60048036038101906101a59190611520565b610621565b005b6101c660048036038101906101c19190611520565b610786565b6040516101d391906115fe565b60405180910390f35b6101e46107d8565b6040516101f19190611626565b60405180910390f35b610214600480360381019061020f9190611520565b6107fd565b005b610230600480360381019061022b9190611520565b610962565b005b61023a610a62565b6040516102479190611626565b60405180910390f35b610258610a86565b6040516102659190611563565b60405180910390f35b6102886004803603810190610283919061163f565b610a8c565b6040516102959190611626565b60405180910390f35b6102b860048036038101906102b391906115a6565b610e8c565b005b6102c2611062565b6040516102cf9190611563565b60405180910390f35b6102e0611068565b6040516102ed9190611626565b60405180910390f35b610310600480360381019061030b9190611520565b61108d565b60405161031d9190611563565b60405180910390f35b61032e6110a2565b60405161033b91906115fe565b60405180910390f35b61034c6110b3565b6040516103599190611563565b60405180910390f35b61037c6004803603810190610377919061167d565b6110b9565b6040516103899190611626565b60405180910390f35b6103ac60048036038101906103a7919061163f565b6110f4565b6040516103b99190611626565b60405180910390f35b6103dc60048036038101906103d791906116d2565b611195565b005b6103e661126d565b6040516103f39190611626565b60405180910390f35b610416600480360381019061041191906116fd565b611292565b005b6104206113ab565b60405161042d9190611563565b60405180910390f35b6008602052805f5260405f205f915090505481565b60035f9054906101000a900473ffffffffffffffffffffffffffffffffffffffff1673ffffffffffffffffffffffffffffffffffffffff163373ffffffffffffffffffffffffffffffffffffffff16146104d1576040517ff5d267eb00000000000000000000000000000000000000000000000000000000815260040160405180910390fd5b61012c81111561050d576040517fcd4e616700000000000000000000000000000000000000000000000000000000815260040160405180910390fd5b60075f8373ffffffffffffffffffffffffffffffffffffffff1673ffffffffffffffffffffffffffffffffffffffff1681526020019081526020015f205f9054906101000a900460ff1661058d576040517f682a6e7c00000000000000000000000000000000000000000000000000000000815260040160405180910390fd5b8060085f8473ffffffffffffffffffffffffffffffffffffffff1673ffffffffffffffffffffffffffffffffffffffff1681526020019081526020015f20819055508173ffffffffffffffffffffffffffffffffffffffff167fce78db41faad8d3a613429389971e6dc25f809f59a4e8467ea2b71c71203ec08826040516106159190611563565b60405180910390a25050565b5f60019054906101000a900473ffffffffffffffffffffffffffffffffffffffff1673ffffffffffffffffffffffffffffffffffffffff163373ffffffffffffffffffffffffffffffffffffffff16146106a7576040517f492f678100000000000000000000000000000000000000000000000000000000815260040160405180910390fd5b5f73ffffffffffffffffffffffffffffffffffffffff168173ffffffffffffffffffffffffffffffffffffffff160361070c576040517fd92e233d00000000000000000000000000000000000000000000000000000000815260040160405180910390fd5b805f60016101000a81548173ffffffffffffffffffffffffffffffffffffffff021916908373ffffffffffffffffffffffffffffffffffffffff1602179055507fe02efb9e8f0fc21546730ab32d594f62d586e1bbb15bb5045edd0b1878a77b358160405161077b9190611626565b60405180910390a150565b5f60075f8373ffffffffffffffffffffffffffffffffffffffff1673ffffffffffffffffffffffffffffffffffffffff1681526020019081526020015f205f9054906101000a900460ff169050919050565b60045f9054906101000a900473ffffffffffffffffffffffffffffffffffffffff1681565b60035f9054906101000a900473ffffffffffffffffffffffffffffffffffffffff1673ffffffffffffffffffffffffffffffffffffffff163373ffffffffffffffffffffffffffffffffffffffff1614610883576040517ff5d267eb00000000000000000000000000000000000000000000000000000000815260040160405180910390fd5b5f73ffffffffffffffffffffffffffffffffffffffff168173ffffffffffffffffffffffffffffffffffffffff16036108e8576040517fd92e233d00000000000000000000000000000000000000000000000000000000815260040160405180910390fd5b8060035f6101000a81548173ffffffffffffffffffffffffffffffffffffffff021916908373ffffffffffffffffffffffffffffffffffffffff1602179055507f5d0517e3a4eabea892d9750138cd21d4a6cf3b935b43d0598df7055f463819b2816040516109579190611626565b60405180910390a150565b60045f9054906101000a900473ffffffffffffffffffffffffffffffffffffffff1673ffffffffffffffffffffffffffffffffffffffff163373ffffffffffffffffffffffffffffffffffffffff16146109e8576040517fc18384c100000000000000000000000000000000000000000000000000000000815260040160405180910390fd5b8060045f6101000a81548173ffffffffffffffffffffffffffffffffffffffff021916908373ffffffffffffffffffffffffffffffffffffffff1602179055507fc6ff127433b785c51da9ae4088ee184c909b1a55b9afd82ae6c64224d3bc15d281604051610a579190611626565b60405180910390a150565b7f000000000000000000000000000000000000000000000000000000000000000081565b60015481565b5f5f73ffffffffffffffffffffffffffffffffffffffff168373ffffffffffffffffffffffffffffffffffffffff1603610af2576040517fd92e233d00000000000000000000000000000000000000000000000000000000815260040160405180910390fd5b5f73ffffffffffffffffffffffffffffffffffffffff1660055f8573ffffffffffffffffffffffffffffffffffffffff1673ffffffffffffffffffffffffffffffffffffffff1681526020019081526020015f205f8473ffffffffffffffffffffffffffffffffffffffff1673ffffffffffffffffffffffffffffffffffffffff1681526020019081526020015f205f9054906101000a900473ffffffffffffffffffffffffffffffffffffffff1673ffffffffffffffffffffffffffffffffffffffff1614610bee576040517f0311932200000000000000000000000000000000000000000000000000000000815260040160405180910390fd5b5f8383604051602001610c02929190611780565b604051602081830303815290604052805190602001209050610c447f0000000000000000000000000000000000000000000000000000000000000000826113b7565b91508173ffffffffffffffffffffffffffffffffffffffff1663485cc95585856040518363ffffffff1660e01b8152600401610c819291906117ab565b5f604051808303815f87803b158015610c98575f5ffd5b505af1158015610caa573d5f5f3e3d5ffd5b505050508160055f8673ffffffffffffffffffffffffffffffffffffffff1673ffffffffffffffffffffffffffffffffffffffff1681526020019081526020015f205f8573ffffffffffffffffffffffffffffffffffffffff1673ffffffffffffffffffffffffffffffffffffffff1681526020019081526020015f205f6101000a81548173ffffffffffffffffffffffffffffffffffffffff021916908373ffffffffffffffffffffffffffffffffffffffff160217905550600682908060018154018082558091505060019003905f5260205f20015f9091909190916101000a81548173ffffffffffffffffffffffffffffffffffffffff021916908373ffffffffffffffffffffffffffffffffffffffff160217905550600160075f8473ffffffffffffffffffffffffffffffffffffffff1673ffffffffffffffffffffffffffffffffffffffff1681526020019081526020015f205f6101000a81548160ff0219169083151502179055508273ffffffffffffffffffffffffffffffffffffffff168473ffffffffffffffffffffffffffffffffffffffff167f9a07b2753aaebe71b96e78f64ccced2e2b9ff13d98b3c7784285ef0c31631dbf84600680549050604051610e7d9291906117d2565b60405180910390a35092915050565b60035f9054906101000a900473ffffffffffffffffffffffffffffffffffffffff1673ffffffffffffffffffffffffffffffffffffffff163373ffffffffffffffffffffffffffffffffffffffff1614610f12576040517ff5d267eb00000000000000000000000000000000000000000000000000000000815260040160405180910390fd5b61012c811115610f4e576040517fcd4e616700000000000000000000000000000000000000000000000000000000815260040160405180910390fd5b60075f8373ffffffffffffffffffffffffffffffffffffffff1673ffffffffffffffffffffffffffffffffffffffff1681526020019081526020015f205f9054906101000a900460ff16610fce576040517f682a6e7c00000000000000000000000000000000000000000000000000000000815260040160405180910390fd5b8060095f8473ffffffffffffffffffffffffffffffffffffffff1673ffffffffffffffffffffffffffffffffffffffff1681526020019081526020015f20819055508173ffffffffffffffffffffffffffffffffffffffff167f6f6bd3c4b38df451f210a585e872b5a0b6de937fda37f0eb0c7731afb4391985826040516110569190611563565b60405180910390a25050565b60025481565b5f60019054906101000a900473ffffffffffffffffffffffffffffffffffffffff1681565b6009602052805f5260405f205f915090505481565b5f5f9054906101000a900460ff1681565b61012c81565b600681815481106110c8575f80fd5b905f5260205f20015f915054906101000a900473ffffffffffffffffffffffffffffffffffffffff1681565b5f60055f8473ffffffffffffffffffffffffffffffffffffffff1673ffffffffffffffffffffffffffffffffffffffff1681526020019081526020015f205f8373ffffffffffffffffffffffffffffffffffffffff1673ffffffffffffffffffffffffffffffffffffffff1681526020019081526020015f205f9054906101000a900473ffffffffffffffffffffffffffffffffffffffff16905092915050565b5f60019054906101000a900473ffffffffffffffffffffffffffffffffffffffff1673ffffffffffffffffffffffffffffffffffffffff163373ffffffffffffffffffffffffffffffffffffffff161461121b576040517f492f678100000000000000000000000000000000000000000000000000000000815260040160405180910390fd5b805f5f6101000a81548160ff0219169083151502179055507f0d76538efc408318a051137c2720a9e82902acdbd46b802d488b74ca3a09a1168160405161126291906115fe565b60405180910390a150565b60035f9054906101000a900473ffffffffffffffffffffffffffffffffffffffff1681565b60035f9054906101000a900473ffffffffffffffffffffffffffffffffffffffff1673ffffffffffffffffffffffffffffffffffffffff163373ffffffffffffffffffffffffffffffffffffffff1614611318576040517ff5d267eb00000000000000000000000000000000000000000000000000000000815260040160405180910390fd5b61012c811115611354576040517fcd4e616700000000000000000000000000000000000000000000000000000000815260040160405180910390fd5b5f810361138d576040517faf13986d00000000000000000000000000000000000000000000000000000000815260040160405180910390fd5b811561139f57806001819055506113a7565b806002819055505b5050565b5f600680549050905090565b5f6113c383835f6113cb565b905092915050565b5f814710156114135747826040517fcf47918100000000000000000000000000000000000000000000000000000000815260040161140a9291906117f9565b60405180910390fd5b763d602d80600a3d3981f3363d3d373d3d3d363d730000008460601b60e81c175f526e5af43d82803e903d91602b57fd5bf38460781b17602052826037600984f590505f73ffffffffffffffffffffffffffffffffffffffff168173ffffffffffffffffffffffffffffffffffffffff16036114bb576040517fb06ebf3d00000000000000000000000000000000000000000000000000000000815260040160405180910390fd5b9392505050565b5f5ffd5b5f73ffffffffffffffffffffffffffffffffffffffff82169050919050565b5f6114ef826114c6565b9050919050565b6114ff816114e5565b8114611509575f5ffd5b50565b5f8135905061151a816114f6565b92915050565b5f60208284031215611535576115346114c2565b5b5f6115428482850161150c565b91505092915050565b5f819050919050565b61155d8161154b565b82525050565b5f6020820190506115765f830184611554565b92915050565b6115858161154b565b811461158f575f5ffd5b50565b5f813590506115a08161157c565b92915050565b5f5f604083850312156115bc576115bb6114c2565b5b5f6115c98582860161150c565b92505060206115da85828601611592565b9150509250929050565b5f8115159050919050565b6115f8816115e4565b82525050565b5f6020820190506116115f8301846115ef565b92915050565b611620816114e5565b82525050565b5f6020820190506116395f830184611617565b92915050565b5f5f60408385031215611655576116546114c2565b5b5f6116628582860161150c565b92505060206116738582860161150c565b9150509250929050565b5f60208284031215611692576116916114c2565b5b5f61169f84828501611592565b91505092915050565b6116b1816115e4565b81146116bb575f5ffd5b50565b5f813590506116cc816116a8565b92915050565b5f602082840312156116e7576116e66114c2565b5b5f6116f4848285016116be565b91505092915050565b5f5f60408385031215611713576117126114c2565b5b5f611720858286016116be565b925050602061173185828601611592565b9150509250929050565b5f8160601b9050919050565b5f6117518261173b565b9050919050565b5f61176282611747565b9050919050565b61177a611775826114e5565b611758565b82525050565b5f61178b8285611769565b60148201915061179b8284611769565b6014820191508190509392505050565b5f6040820190506117be5f830185611617565b6117cb6020830184611617565b9392505050565b5f6040820190506117e55f830185611617565b6117f26020830184611554565b9392505050565b5f60408201905061180c5f830185611554565b6118196020830184611554565b939250505056fea264697066735822122038ee56af302644c5c3219a67ba759a7e38127d6270da290af901a7e77178f26e64736f6c634300081c0033",
					"opcodes": "PUSH1 0xA0 PUSH1 0x40 MSTORE CALLVALUE DUP1 ISZERO PUSH2 0xF JUMPI PUSH0 PUSH0 REVERT JUMPDEST POP PUSH1 0x40 MLOAD PUSH2 0x1A51 CODESIZE SUB DUP1 PUSH2 0x1A51 DUP4 CODECOPY DUP2 DUP2 ADD PUSH1 0x40 MSTORE DUP2 ADD SWAP1 PUSH2 0x31 SWAP2 SWAP1 PUSH2 0x1B1 JUMP JUMPDEST DUP1 PUSH20 0xFFFFFFFFFFFFFFFFFFFFFFFFFFFFFFFFFFFFFFFF AND PUSH1 0x80 DUP2 PUSH20 0xFFFFFFFFFFFFFFFFFFFFFFFFFFFFFFFFFFFFFFFF AND DUP2 MSTORE POP POP CALLER PUSH1 0x4 PUSH0 PUSH2 0x100 EXP DUP2 SLOAD DUP2 PUSH20 0xFFFFFFFFFFFFFFFFFFFFFFFFFFFFFFFFFFFFFFFF MUL NOT AND SWAP1 DUP4 PUSH20 0xFFFFFFFFFFFFFFFFFFFFFFFFFFFFFFFFFFFFFFFF AND MUL OR SWAP1 SSTORE POP CALLER PUSH0 PUSH1 0x1 PUSH2 0x100 EXP DUP2 SLOAD DUP2 PUSH20 0xFFFFFFFFFFFFFFFFFFFFFFFFFFFFFFFFFFFFFFFF MUL NOT AND SWAP1 DUP4 PUSH20 0xFFFFFFFFFFFFFFFFFFFFFFFFFFFFFFFFFFFFFFFF AND MUL OR SWAP1 SSTORE POP CALLER PUSH1 0x3 PUSH0 PUSH2 0x100 EXP DUP2 SLOAD DUP2 PUSH20 0xFFFFFFFFFFFFFFFFFFFFFFFFFFFFFFFFFFFFFFFF MUL NOT AND SWAP1 DUP4 PUSH20 0xFFFFFFFFFFFFFFFFFFFFFFFFFFFFFFFFFFFFFFFF AND MUL OR SWAP1 SSTORE POP PUSH0 PUSH0 PUSH0 PUSH2 0x100 EXP DUP2 SLOAD DUP2 PUSH1 0xFF MUL NOT AND SWAP1 DUP4 ISZERO ISZERO MUL OR SWAP1 SSTORE POP PUSH1 0x5 PUSH1 0x1 DUP2 SWAP1 SSTORE POP PUSH1 0x1E PUSH1 0x2 DUP2 SWAP1 SSTORE POP POP PUSH2 0x1DC JUMP JUMPDEST PUSH0 PUSH0 REVERT JUMPDEST PUSH0 PUSH20 0xFFFFFFFFFFFFFFFFFFFFFFFFFFFFFFFFFFFFFFFF DUP3 AND SWAP1 POP SWAP2 SWAP1 POP JUMP JUMPDEST PUSH0 PUSH2 0x180 DUP3 PUSH2 0x157 JUMP JUMPDEST SWAP1 POP SWAP2 SWAP1 POP JUMP JUMPDEST PUSH2 0x190 DUP2 PUSH2 0x176 JUMP JUMPDEST DUP2 EQ PUSH2 0x19A JUMPI PUSH0 PUSH0 REVERT JUMPDEST POP JUMP JUMPDEST PUSH0 DUP2 MLOAD SWAP1 POP PUSH2 0x1AB DUP2 PUSH2 0x187 JUMP JUMPDEST SWAP3 SWAP2 POP POP JUMP JUMPDEST PUSH0 PUSH1 0x20 DUP3 DUP5 SUB SLT ISZERO PUSH2 0x1C6 JUMPI PUSH2 0x1C5 PUSH2 0x153 JUMP JUMPDEST JUMPDEST PUSH0 PUSH2 0x1D3 DUP5 DUP3 DUP6 ADD PUSH2 0x19D JUMP JUMPDEST SWAP2 POP POP SWAP3 SWAP2 POP POP JUMP JUMPDEST PUSH1 0x80 MLOAD PUSH2 0x1856 PUSH2 0x1FB PUSH0 CODECOPY PUSH0 DUP2 DUP2 PUSH2 0xA64 ADD MSTORE PUSH2 0xC1F ADD MSTORE PUSH2 0x1856 PUSH0 RETURN INVALID PUSH1 0x80 PUSH1 0x40 MSTORE CALLVALUE DUP1 ISZERO PUSH2 0xF JUMPI PUSH0 PUSH0 REVERT JUMPDEST POP PUSH1 0x4 CALLDATASIZE LT PUSH2 0x140 JUMPI PUSH0 CALLDATALOAD PUSH1 0xE0 SHR DUP1 PUSH4 0x99D32FC4 GT PUSH2 0xB6 JUMPI DUP1 PUSH4 0xBCECF81B GT PUSH2 0x7A JUMPI DUP1 PUSH4 0xBCECF81B EQ PUSH2 0x362 JUMPI DUP1 PUSH4 0xCD1A0DD2 EQ PUSH2 0x392 JUMPI DUP1 PUSH4 0xCDB88AD1 EQ PUSH2 0x3C2 JUMPI DUP1 PUSH4 0xD0FB0203 EQ PUSH2 0x3DE JUMPI DUP1 PUSH4 0xE1F76B44 EQ PUSH2 0x3FC JUMPI DUP1 PUSH4 0xF64EE765 EQ PUSH2 0x418 JUMPI PUSH2 0x140 JUMP JUMPDEST DUP1 PUSH4 0x99D32FC4 EQ PUSH2 0x2BA JUMPI DUP1 PUSH4 0x9FD0506D EQ PUSH2 0x2D8 JUMPI DUP1 PUSH4 0xA74ADCEB EQ PUSH2 0x2F6 JUMPI DUP1 PUSH4 0xB187BD26 EQ PUSH2 0x326 JUMPI DUP1 PUSH4 0xBC063E1A EQ PUSH2 0x344 JUMPI PUSH2 0x140 JUMP JUMPDEST DUP1 PUSH4 0x472D35B9 GT PUSH2 0x108 JUMPI DUP1 PUSH4 0x472D35B9 EQ PUSH2 0x1FA JUMPI DUP1 PUSH4 0x4BC2A657 EQ PUSH2 0x216 JUMPI DUP1 PUSH4 0x5C60DA1B EQ PUSH2 0x232 JUMPI DUP1 PUSH4 0x67A52793 EQ PUSH2 0x250 JUMPI DUP1 PUSH4 0x830E4EEF EQ PUSH2 0x26E JUMPI DUP1 PUSH4 0x984FA01F EQ PUSH2 0x29E JUMPI PUSH2 0x140 JUMP JUMPDEST DUP1 PUSH4 0x28A6B3FF EQ PUSH2 0x144 JUMPI DUP1 PUSH4 0x2C3DE946 EQ PUSH2 0x174 JUMPI DUP1 PUSH4 0x2D88AF4A EQ PUSH2 0x190 JUMPI DUP1 PUSH4 0x38ED1793 EQ PUSH2 0x1AC JUMPI DUP1 PUSH4 0x46C96AAC EQ PUSH2 0x1DC JUMPI JUMPDEST PUSH0 PUSH0 REVERT JUMPDEST PUSH2 0x15E PUSH1 0x4 DUP1 CALLDATASIZE SUB DUP2 ADD SWAP1 PUSH2 0x159 SWAP2 SWAP1 PUSH2 0x1520 JUMP JUMPDEST PUSH2 0x436 JUMP JUMPDEST PUSH1 0x40 MLOAD PUSH2 0x16B SWAP2 SWAP1 PUSH2 0x1563 JUMP JUMPDEST PUSH1 0x40 MLOAD DUP1 SWAP2 SUB SWAP1 RETURN JUMPDEST PUSH2 0x18E PUSH1 0x4 DUP1 CALLDATASIZE SUB DUP2 ADD SWAP1 PUSH2 0x189 SWAP2 SWAP1 PUSH2 0x15A6 JUMP JUMPDEST PUSH2 0x44B JUMP JUMPDEST STOP JUMPDEST PUSH2 0x1AA PUSH1 0x4 DUP1 CALLDATASIZE SUB DUP2 ADD SWAP1 PUSH2 0x1A5 SWAP2 SWAP1 PUSH2 0x1520 JUMP JUMPDEST PUSH2 0x621 JUMP JUMPDEST STOP JUMPDEST PUSH2 0x1C6 PUSH1 0x4 DUP1 CALLDATASIZE SUB DUP2 ADD SWAP1 PUSH2 0x1C1 SWAP2 SWAP1 PUSH2 0x1520 JUMP JUMPDEST PUSH2 0x786 JUMP JUMPDEST PUSH1 0x40 MLOAD PUSH2 0x1D3 SWAP2 SWAP1 PUSH2 0x15FE JUMP JUMPDEST PUSH1 0x40 MLOAD DUP1 SWAP2 SUB SWAP1 RETURN JUMPDEST PUSH2 0x1E4 PUSH2 0x7D8 JUMP JUMPDEST PUSH1 0x40 MLOAD PUSH2 0x1F1 SWAP2 SWAP1 PUSH2 0x1626 JUMP JUMPDEST PUSH1 0x40 MLOAD DUP1 SWAP2 SUB SWAP1 RETURN JUMPDEST PUSH2 0x214 PUSH1 0x4 DUP1 CALLDATASIZE SUB DUP2 ADD SWAP1 PUSH2 0x20F SWAP2 SWAP1 PUSH2 0x1520 JUMP JUMPDEST PUSH2 0x7FD JUMP JUMPDEST STOP JUMPDEST PUSH2 0x230 PUSH1 0x4 DUP1 CALLDATASIZE SUB DUP2 ADD SWAP1 PUSH2 0x22B SWAP2 SWAP1 PUSH2 0x1520 JUMP JUMPDEST PUSH2 0x962 JUMP JUMPDEST STOP JUMPDEST PUSH2 0x23A PUSH2 0xA62 JUMP JUMPDEST PUSH1 0x40 MLOAD PUSH2 0x247 SWAP2 SWAP1 PUSH2 0x1626 JUMP JUMPDEST PUSH1 0x40 MLOAD DUP1 SWAP2 SUB SWAP1 RETURN JUMPDEST PUSH2 0x258 PUSH2 0xA86 JUMP JUMPDEST PUSH1 0x40 MLOAD PUSH2 0x265 SWAP2 SWAP1 PUSH2 0x1563 JUMP JUMPDEST PUSH1 0x40 MLOAD DUP1 SWAP2 SUB SWAP1 RETURN JUMPDEST PUSH2 0x288 PUSH1 0x4 DUP1 CALLDATASIZE SUB DUP2 ADD SWAP1 PUSH2 0x283 SWAP2 SWAP1 PUSH2 0x163F JUMP JUMPDEST PUSH2 0xA8C JUMP JUMPDEST PUSH1 0x40 MLOAD PUSH2 0x295 SWAP2 SWAP1 PUSH2 0x1626 JUMP JUMPDEST PUSH1 0x40 MLOAD DUP1 SWAP2 SUB SWAP1 RETURN JUMPDEST PUSH2 0x2B8 PUSH1 0x4 DUP1 CALLDATASIZE SUB DUP2 ADD SWAP1 PUSH2 0x2B3 SWAP2 SWAP1 PUSH2 0x15A6 JUMP JUMPDEST PUSH2 0xE8C JUMP JUMPDEST STOP JUMPDEST PUSH2 0x2C2 PUSH2 0x1062 JUMP JUMPDEST PUSH1 0x40 MLOAD PUSH2 0x2CF SWAP2 SWAP1 PUSH2 0x1563 JUMP JUMPDEST PUSH1 0x40 MLOAD DUP1 SWAP2 SUB SWAP1 RETURN JUMPDEST PUSH2 0x2E0 PUSH2 0x1068 JUMP JUMPDEST PUSH1 0x40 MLOAD PUSH2 0x2ED SWAP2 SWAP1 PUSH2 0x1626 JUMP JUMPDEST PUSH1 0x40 MLOAD DUP1 SWAP2 SUB SWAP1 RETURN JUMPDEST PUSH2 0x310 PUSH1 0x4 DUP1 CALLDATASIZE SUB DUP2 ADD SWAP1 PUSH2 0x30B SWAP2 SWAP1 PUSH2 0x1520 JUMP JUMPDEST PUSH2 0x108D JUMP JUMPDEST PUSH1 0x40 MLOAD PUSH2 0x31D SWAP2 SWAP1 PUSH2 0x1563 JUMP JUMPDEST PUSH1 0x40 MLOAD DUP1 SWAP2 SUB SWAP1 RETURN JUMPDEST PUSH2 0x32E PUSH2 0x10A2 JUMP JUMPDEST PUSH1 0x40 MLOAD PUSH2 0x33B SWAP2 SWAP1 PUSH2 0x15FE JUMP JUMPDEST PUSH1 0x40 MLOAD DUP1 SWAP2 SUB SWAP1 RETURN JUMPDEST PUSH2 0x34C PUSH2 0x10B3 JUMP JUMPDEST PUSH1 0x40 MLOAD PUSH2 0x359 SWAP2 SWAP1 PUSH2 0x1563 JUMP JUMPDEST PUSH1 0x40 MLOAD DUP1 SWAP2 SUB SWAP1 RETURN JUMPDEST PUSH2 0x37C PUSH1 0x4 DUP1 CALLDATASIZE SUB DUP2 ADD SWAP1 PUSH2 0x377 SWAP2 SWAP1 PUSH2 0x167D JUMP JUMPDEST PUSH2 0x10B9 JUMP JUMPDEST PUSH1 0x40 MLOAD PUSH2 0x389 SWAP2 SWAP1 PUSH2 0x1626 JUMP JUMPDEST PUSH1 0x40 MLOAD DUP1 SWAP2 SUB SWAP1 RETURN JUMPDEST PUSH2 0x3AC PUSH1 0x4 DUP1 CALLDATASIZE SUB DUP2 ADD SWAP1 PUSH2 0x3A7 SWAP2 SWAP1 PUSH2 0x163F JUMP JUMPDEST PUSH2 0x10F4 JUMP JUMPDEST PUSH1 0x40 MLOAD PUSH2 0x3B9 SWAP2 SWAP1 PUSH2 0x1626 JUMP JUMPDEST PUSH1 0x40 MLOAD DUP1 SWAP2 SUB SWAP1 RETURN JUMPDEST PUSH2 0x3DC PUSH1 0x4 DUP1 CALLDATASIZE SUB DUP2 ADD SWAP1 PUSH2 0x3D7 SWAP2 SWAP1 PUSH2 0x16D2 JUMP JUMPDEST PUSH2 0x1195 JUMP JUMPDEST STOP JUMPDEST PUSH2 0x3E6 PUSH2 0x126D JUMP JUMPDEST PUSH1 0x40 MLOAD PUSH2 0x3F3 SWAP2 SWAP1 PUSH2 0x1626 JUMP JUMPDEST PUSH1 0x40 MLOAD DUP1 SWAP2 SUB SWAP1 RETURN JUMPDEST PUSH2 0x416 PUSH1 0x4 DUP1 CALLDATASIZE SUB DUP2 ADD SWAP1 PUSH2 0x411 SWAP2 SWAP1 PUSH2 0x16FD JUMP JUMPDEST PUSH2 0x1292 JUMP JUMPDEST STOP JUMPDEST PUSH2 0x420 PUSH2 0x13AB JUMP JUMPDEST PUSH1 0x40 MLOAD PUSH2 0x42D SWAP2 SWAP1 PUSH2 0x1563 JUMP JUMPDEST PUSH1 0x40 MLOAD DUP1 SWAP2 SUB SWAP1 RETURN JUMPDEST PUSH1 0x8 PUSH1 0x20 MSTORE DUP1 PUSH0 MSTORE PUSH1 0x40 PUSH0 KECCAK256 PUSH0 SWAP2 POP SWAP1 POP SLOAD DUP2 JUMP JUMPDEST PUSH1 0x3 PUSH0 SWAP1 SLOAD SWAP1 PUSH2 0x100 EXP SWAP1 DIV PUSH20 0xFFFFFFFFFFFFFFFFFFFFFFFFFFFFFFFFFFFFFFFF AND PUSH20 0xFFFFFFFFFFFFFFFFFFFFFFFFFFFFFFFFFFFFFFFF AND CALLER PUSH20 0xFFFFFFFFFFFFFFFFFFFFFFFFFFFFFFFFFFFFFFFF AND EQ PUSH2 0x4D1 JUMPI PUSH1 0x40 MLOAD PUSH32 0xF5D267EB00000000000000000000000000000000000000000000000000000000 DUP2 MSTORE PUSH1 0x4 ADD PUSH1 0x40 MLOAD DUP1 SWAP2 SUB SWAP1 REVERT JUMPDEST PUSH2 0x12C DUP2 GT ISZERO PUSH2 0x50D JUMPI PUSH1 0x40 MLOAD PUSH32 0xCD4E616700000000000000000000000000000000000000000000000000000000 DUP2 MSTORE PUSH1 0x4 ADD PUSH1 0x40 MLOAD DUP1 SWAP2 SUB SWAP1 REVERT JUMPDEST PUSH1 0x7 PUSH0 DUP4 PUSH20 0xFFFFFFFFFFFFFFFFFFFFFFFFFFFFFFFFFFFFFFFF AND PUSH20 0xFFFFFFFFFFFFFFFFFFFFFFFFFFFFFFFFFFFFFFFF AND DUP2 MSTORE PUSH1 0x20 ADD SWAP1 DUP2 MSTORE PUSH1 0x20 ADD PUSH0 KECCAK256 PUSH0 SWAP1 SLOAD SWAP1 PUSH2 0x100 EXP SWAP1 DIV PUSH1 0xFF AND PUSH2 0x58D JUMPI PUSH1 0x40 MLOAD PUSH32 0x682A6E7C00000000000000000000000000000000000000000000000000000000 DUP2 MSTORE PUSH1 0x4 ADD PUSH1 0x40 MLOAD DUP1 SWAP2 SUB SWAP1 REVERT JUMPDEST DUP1 PUSH1 0x8 PUSH0 DUP5 PUSH20 0xFFFFFFFFFFFFFFFFFFFFFFFFFFFFFFFFFFFFFFFF AND PUSH20 0xFFFFFFFFFFFFFFFFFFFFFFFFFFFFFFFFFFFFFFFF AND DUP2 MSTORE PUSH1 0x20 ADD SWAP1 DUP2 MSTORE PUSH1 0x20 ADD PUSH0 KECCAK256 DUP2 SWAP1 SSTORE POP DUP2 PUSH20 0xFFFFFFFFFFFFFFFFFFFFFFFFFFFFFFFFFFFFFFFF AND PUSH32 0xCE78DB41FAAD8D3A613429389971E6DC25F809F59A4E8467EA2B71C71203EC08 DUP3 PUSH1 0x40 MLOAD PUSH2 0x615 SWAP2 SWAP1 PUSH2 0x1563 JUMP JUMPDEST PUSH1 0x40 MLOAD DUP1 SWAP2 SUB SWAP1 LOG2 POP POP JUMP JUMPDEST PUSH0 PUSH1 0x1 SWAP1 SLOAD SWAP1 PUSH2 0x100 EXP SWAP1 DIV PUSH20 0xFFFFFFFFFFFFFFFFFFFFFFFFFFFFFFFFFFFFFFFF AND PUSH20 0xFFFFFFFFFFFFFFFFFFFFFFFFFFFFFFFFFFFFFFFF AND CALLER PUSH20 0xFFFFFFFFFFFFFFFFFFFFFFFFFFFFFFFFFFFFFFFF AND EQ PUSH2 0x6A7 JUMPI PUSH1 0x40 MLOAD PUSH32 0x492F678100000000000000000000000000000000000000000000000000000000 DUP2 MSTORE PUSH1 0x4 ADD PUSH1 0x40 MLOAD DUP1 SWAP2 SUB SWAP1 REVERT JUMPDEST PUSH0 PUSH20 0xFFFFFFFFFFFFFFFFFFFFFFFFFFFFFFFFFFFFFFFF AND DUP2 PUSH20 0xFFFFFFFFFFFFFFFFFFFFFFFFFFFFFFFFFFFFFFFF AND SUB PUSH2 0x70C JUMPI PUSH1 0x40 MLOAD PUSH32 0xD92E233D00000000000000000000000000000000000000000000000000000000 DUP2 MSTORE PUSH1 0x4 ADD PUSH1 0x40 MLOAD DUP1 SWAP2 SUB SWAP1 REVERT JUMPDEST DUP1 PUSH0 PUSH1 0x1 PUSH2 0x100 EXP DUP2 SLOAD DUP2 PUSH20 0xFFFFFFFFFFFFFFFFFFFFFFFFFFFFFFFFFFFFFFFF MUL NOT AND SWAP1 DUP4 PUSH20 0xFFFFFFFFFFFFFFFFFFFFFFFFFFFFFFFFFFFFFFFF AND MUL OR SWAP1 SSTORE POP PUSH32 0xE02EFB9E8F0FC21546730AB32D594F62D586E1BBB15BB5045EDD0B1878A77B35 DUP2 PUSH1 0x40 MLOAD PUSH2 0x77B SWAP2 SWAP1 PUSH2 0x1626 JUMP JUMPDEST PUSH1 0x40 MLOAD DUP1 SWAP2 SUB SWAP1 LOG1 POP JUMP JUMPDEST PUSH0 PUSH1 0x7 PUSH0 DUP4 PUSH20 0xFFFFFFFFFFFFFFFFFFFFFFFFFFFFFFFFFFFFFFFF AND PUSH20 0xFFFFFFFFFFFFFFFFFFFFFFFFFFFFFFFFFFFFFFFF AND DUP2 MSTORE PUSH1 0x20 ADD SWAP1 DUP2 MSTORE PUSH1 0x20 ADD PUSH0 KECCAK256 PUSH0 SWAP1 SLOAD SWAP1 PUSH2 0x100 EXP SWAP1 DIV PUSH1 0xFF AND SWAP1 POP SWAP2 SWAP1 POP JUMP JUMPDEST PUSH1 0x4 PUSH0 SWAP1 SLOAD SWAP1 PUSH2 0x100 EXP SWAP1 DIV PUSH20 0xFFFFFFFFFFFFFFFFFFFFFFFFFFFFFFFFFFFFFFFF AND DUP2 JUMP JUMPDEST PUSH1 0x3 PUSH0 SWAP1 SLOAD SWAP1 PUSH2 0x100 EXP SWAP1 DIV PUSH20 0xFFFFFFFFFFFFFFFFFFFFFFFFFFFFFFFFFFFFFFFF AND PUSH20 0xFFFFFFFFFFFFFFFFFFFFFFFFFFFFFFFFFFFFFFFF AND CALLER PUSH20 0xFFFFFFFFFFFFFFFFFFFFFFFFFFFFFFFFFFFFFFFF AND EQ PUSH2 0x883 JUMPI PUSH1 0x40 MLOAD PUSH32 0xF5D267EB00000000000000000000000000000000000000000000000000000000 DUP2 MSTORE PUSH1 0x4 ADD PUSH1 0x40 MLOAD DUP1 SWAP2 SUB SWAP1 REVERT JUMPDEST PUSH0 PUSH20 0xFFFFFFFFFFFFFFFFFFFFFFFFFFFFFFFFFFFFFFFF AND DUP2 PUSH20 0xFFFFFFFFFFFFFFFFFFFFFFFFFFFFFFFFFFFFFFFF AND SUB PUSH2 0x8E8 JUMPI PUSH1 0x40 MLOAD PUSH32 0xD92E233D00000000000000000000000000000000000000000000000000000000 DUP2 MSTORE PUSH1 0x4 ADD PUSH1 0x40 MLOAD DUP1 SWAP2 SUB SWAP1 REVERT JUMPDEST DUP1 PUSH1 0x3 PUSH0 PUSH2 0x100 EXP DUP2 SLOAD DUP2 PUSH20 0xFFFFFFFFFFFFFFFFFFFFFFFFFFFFFFFFFFFFFFFF MUL NOT AND SWAP1 DUP4 PUSH20 0xFFFFFFFFFFFFFFFFFFFFFFFFFFFFFFFFFFFFFFFF AND MUL OR SWAP1 SSTORE POP PUSH32 0x5D0517E3A4EABEA892D9750138CD21D4A6CF3B935B43D0598DF7055F463819B2 DUP2 PUSH1 0x40 MLOAD PUSH2 0x957 SWAP2 SWAP1 PUSH2 0x1626 JUMP JUMPDEST PUSH1 0x40 MLOAD DUP1 SWAP2 SUB SWAP1 LOG1 POP JUMP JUMPDEST PUSH1 0x4 PUSH0 SWAP1 SLOAD SWAP1 PUSH2 0x100 EXP SWAP1 DIV PUSH20 0xFFFFFFFFFFFFFFFFFFFFFFFFFFFFFFFFFFFFFFFF AND PUSH20 0xFFFFFFFFFFFFFFFFFFFFFFFFFFFFFFFFFFFFFFFF AND CALLER PUSH20 0xFFFFFFFFFFFFFFFFFFFFFFFFFFFFFFFFFFFFFFFF AND EQ PUSH2 0x9E8 JUMPI PUSH1 0x40 MLOAD PUSH32 0xC18384C100000000000000000000000000000000000000000000000000000000 DUP2 MSTORE PUSH1 0x4 ADD PUSH1 0x40 MLOAD DUP1 SWAP2 SUB SWAP1 REVERT JUMPDEST DUP1 PUSH1 0x4 PUSH0 PUSH2 0x100 EXP DUP2 SLOAD DUP2 PUSH20 0xFFFFFFFFFFFFFFFFFFFFFFFFFFFFFFFFFFFFFFFF MUL NOT AND SWAP1 DUP4 PUSH20 0xFFFFFFFFFFFFFFFFFFFFFFFFFFFFFFFFFFFFFFFF AND MUL OR SWAP1 SSTORE POP PUSH32 0xC6FF127433B785C51DA9AE4088EE184C909B1A55B9AFD82AE6C64224D3BC15D2 DUP2 PUSH1 0x40 MLOAD PUSH2 0xA57 SWAP2 SWAP1 PUSH2 0x1626 JUMP JUMPDEST PUSH1 0x40 MLOAD DUP1 SWAP2 SUB SWAP1 LOG1 POP JUMP JUMPDEST PUSH32 0x0 DUP2 JUMP JUMPDEST PUSH1 0x1 SLOAD DUP2 JUMP JUMPDEST PUSH0 PUSH0 PUSH20 0xFFFFFFFFFFFFFFFFFFFFFFFFFFFFFFFFFFFFFFFF AND DUP4 PUSH20 0xFFFFFFFFFFFFFFFFFFFFFFFFFFFFFFFFFFFFFFFF AND SUB PUSH2 0xAF2 JUMPI PUSH1 0x40 MLOAD PUSH32 0xD92E233D00000000000000000000000000000000000000000000000000000000 DUP2 MSTORE PUSH1 0x4 ADD PUSH1 0x40 MLOAD DUP1 SWAP2 SUB SWAP1 REVERT JUMPDEST PUSH0 PUSH20 0xFFFFFFFFFFFFFFFFFFFFFFFFFFFFFFFFFFFFFFFF AND PUSH1 0x5 PUSH0 DUP6 PUSH20 0xFFFFFFFFFFFFFFFFFFFFFFFFFFFFFFFFFFFFFFFF AND PUSH20 0xFFFFFFFFFFFFFFFFFFFFFFFFFFFFFFFFFFFFFFFF AND DUP2 MSTORE PUSH1 0x20 ADD SWAP1 DUP2 MSTORE PUSH1 0x20 ADD PUSH0 KECCAK256 PUSH0 DUP5 PUSH20 0xFFFFFFFFFFFFFFFFFFFFFFFFFFFFFFFFFFFFFFFF AND PUSH20 0xFFFFFFFFFFFFFFFFFFFFFFFFFFFFFFFFFFFFFFFF AND DUP2 MSTORE PUSH1 0x20 ADD SWAP1 DUP2 MSTORE PUSH1 0x20 ADD PUSH0 KECCAK256 PUSH0 SWAP1 SLOAD SWAP1 PUSH2 0x100 EXP SWAP1 DIV PUSH20 0xFFFFFFFFFFFFFFFFFFFFFFFFFFFFFFFFFFFFFFFF AND PUSH20 0xFFFFFFFFFFFFFFFFFFFFFFFFFFFFFFFFFFFFFFFF AND EQ PUSH2 0xBEE JUMPI PUSH1 0x40 MLOAD PUSH32 0x311932200000000000000000000000000000000000000000000000000000000 DUP2 MSTORE PUSH1 0x4 ADD PUSH1 0x40 MLOAD DUP1 SWAP2 SUB SWAP1 REVERT JUMPDEST PUSH0 DUP4 DUP4 PUSH1 0x40 MLOAD PUSH1 0x20 ADD PUSH2 0xC02 SWAP3 SWAP2 SWAP1 PUSH2 0x1780 JUMP JUMPDEST PUSH1 0x40 MLOAD PUSH1 0x20 DUP2 DUP4 SUB SUB DUP2 MSTORE SWAP1 PUSH1 0x40 MSTORE DUP1 MLOAD SWAP1 PUSH1 0x20 ADD KECCAK256 SWAP1 POP PUSH2 0xC44 PUSH32 0x0 DUP3 PUSH2 0x13B7 JUMP JUMPDEST SWAP2 POP DUP2 PUSH20 0xFFFFFFFFFFFFFFFFFFFFFFFFFFFFFFFFFFFFFFFF AND PUSH4 0x485CC955 DUP6 DUP6 PUSH1 0x40 MLOAD DUP4 PUSH4 0xFFFFFFFF AND PUSH1 0xE0 SHL DUP2 MSTORE PUSH1 0x4 ADD PUSH2 0xC81 SWAP3 SWAP2 SWAP1 PUSH2 0x17AB JUMP JUMPDEST PUSH0 PUSH1 0x40 MLOAD DUP1 DUP4 SUB DUP2 PUSH0 DUP8 DUP1 EXTCODESIZE ISZERO DUP1 ISZERO PUSH2 0xC98 JUMPI PUSH0 PUSH0 REVERT JUMPDEST POP GAS CALL ISZERO DUP1 ISZERO PUSH2 0xCAA JUMPI RETURNDATASIZE PUSH0 PUSH0 RETURNDATACOPY RETURNDATASIZE PUSH0 REVERT JUMPDEST POP POP POP POP DUP2 PUSH1 0x5 PUSH0 DUP7 PUSH20 0xFFFFFFFFFFFFFFFFFFFFFFFFFFFFFFFFFFFFFFFF AND PUSH20 0xFFFFFFFFFFFFFFFFFFFFFFFFFFFFFFFFFFFFFFFF AND DUP2 MSTORE PUSH1 0x20 ADD SWAP1 DUP2 MSTORE PUSH1 0x20 ADD PUSH0 KECCAK256 PUSH0 DUP6 PUSH20 0xFFFFFFFFFFFFFFFFFFFFFFFFFFFFFFFFFFFFFFFF AND PUSH20 0xFFFFFFFFFFFFFFFFFFFFFFFFFFFFFFFFFFFFFFFF AND DUP2 MSTORE PUSH1 0x20 ADD SWAP1 DUP2 MSTORE PUSH1 0x20 ADD PUSH0 KECCAK256 PUSH0 PUSH2 0x100 EXP DUP2 SLOAD DUP2 PUSH20 0xFFFFFFFFFFFFFFFFFFFFFFFFFFFFFFFFFFFFFFFF MUL NOT AND SWAP1 DUP4 PUSH20 0xFFFFFFFFFFFFFFFFFFFFFFFFFFFFFFFFFFFFFFFF AND MUL OR SWAP1 SSTORE POP PUSH1 0x6 DUP3 SWAP1 DUP1 PUSH1 0x1 DUP2 SLOAD ADD DUP1 DUP3 SSTORE DUP1 SWAP2 POP POP PUSH1 0x1 SWAP1 SUB SWAP1 PUSH0 MSTORE PUSH1 0x20 PUSH0 KECCAK256 ADD PUSH0 SWAP1 SWAP2 SWAP1 SWAP2 SWAP1 SWAP2 PUSH2 0x100 EXP DUP2 SLOAD DUP2 PUSH20 0xFFFFFFFFFFFFFFFFFFFFFFFFFFFFFFFFFFFFFFFF MUL NOT AND SWAP1 DUP4 PUSH20 0xFFFFFFFFFFFFFFFFFFFFFFFFFFFFFFFFFFFFFFFF AND MUL OR SWAP1 SSTORE POP PUSH1 0x1 PUSH1 0x7 PUSH0 DUP5 PUSH20 0xFFFFFFFFFFFFFFFFFFFFFFFFFFFFFFFFFFFFFFFF AND PUSH20 0xFFFFFFFFFFFFFFFFFFFFFFFFFFFFFFFFFFFFFFFF AND DUP2 MSTORE PUSH1 0x20 ADD SWAP1 DUP2 MSTORE PUSH1 0x20 ADD PUSH0 KECCAK256 PUSH0 PUSH2 0x100 EXP DUP2 SLOAD DUP2 PUSH1 0xFF MUL NOT AND SWAP1 DUP4 ISZERO ISZERO MUL OR SWAP1 SSTORE POP DUP3 PUSH20 0xFFFFFFFFFFFFFFFFFFFFFFFFFFFFFFFFFFFFFFFF AND DUP5 PUSH20 0xFFFFFFFFFFFFFFFFFFFFFFFFFFFFFFFFFFFFFFFF AND PUSH32 0x9A07B2753AAEBE71B96E78F64CCCED2E2B9FF13D98B3C7784285EF0C31631DBF DUP5 PUSH1 0x6 DUP1 SLOAD SWAP1 POP PUSH1 0x40 MLOAD PUSH2 0xE7D SWAP3 SWAP2 SWAP1 PUSH2 0x17D2 JUMP JUMPDEST PUSH1 0x40 MLOAD DUP1 SWAP2 SUB SWAP1 LOG3 POP SWAP3 SWAP2 POP POP JUMP JUMPDEST PUSH1 0x3 PUSH0 SWAP1 SLOAD SWAP1 PUSH2 0x100 EXP SWAP1 DIV PUSH20 0xFFFFFFFFFFFFFFFFFFFFFFFFFFFFFFFFFFFFFFFF AND PUSH20 0xFFFFFFFFFFFFFFFFFFFFFFFFFFFFFFFFFFFFFFFF AND CALLER PUSH20 0xFFFFFFFFFFFFFFFFFFFFFFFFFFFFFFFFFFFFFFFF AND EQ PUSH2 0xF12 JUMPI PUSH1 0x40 MLOAD PUSH32 0xF5D267EB00000000000000000000000000000000000000000000000000000000 DUP2 MSTORE PUSH1 0x4 ADD PUSH1 0x40 MLOAD DUP1 SWAP2 SUB SWAP1 REVERT JUMPDEST PUSH2 0x12C DUP2 GT ISZERO PUSH2 0xF4E JUMPI PUSH1 0x40 MLOAD PUSH32 0xCD4E616700000000000000000000000000000000000000000000000000000000 DUP2 MSTORE PUSH1 0x4 ADD PUSH1 0x40 MLOAD DUP1 SWAP2 SUB SWAP1 REVERT JUMPDEST PUSH1 0x7 PUSH0 DUP4 PUSH20 0xFFFFFFFFFFFFFFFFFFFFFFFFFFFFFFFFFFFFFFFF AND PUSH20 0xFFFFFFFFFFFFFFFFFFFFFFFFFFFFFFFFFFFFFFFF AND DUP2 MSTORE PUSH1 0x20 ADD SWAP1 DUP2 MSTORE PUSH1 0x20 ADD PUSH0 KECCAK256 PUSH0 SWAP1 SLOAD SWAP1 PUSH2 0x100 EXP SWAP1 DIV PUSH1 0xFF AND PUSH2 0xFCE JUMPI PUSH1 0x40 MLOAD PUSH32 0x682A6E7C00000000000000000000000000000000000000000000000000000000 DUP2 MSTORE PUSH1 0x4 ADD PUSH1 0x40 MLOAD DUP1 SWAP2 SUB SWAP1 REVERT JUMPDEST DUP1 PUSH1 0x9 PUSH0 DUP5 PUSH20 0xFFFFFFFFFFFFFFFFFFFFFFFFFFFFFFFFFFFFFFFF AND PUSH20 0xFFFFFFFFFFFFFFFFFFFFFFFFFFFFFFFFFFFFFFFF AND DUP2 MSTORE PUSH1 0x20 ADD SWAP1 DUP2 MSTORE PUSH1 0x20 ADD PUSH0 KECCAK256 DUP2 SWAP1 SSTORE POP DUP2 PUSH20 0xFFFFFFFFFFFFFFFFFFFFFFFFFFFFFFFFFFFFFFFF AND PUSH32 0x6F6BD3C4B38DF451F210A585E872B5A0B6DE937FDA37F0EB0C7731AFB4391985 DUP3 PUSH1 0x40 MLOAD PUSH2 0x1056 SWAP2 SWAP1 PUSH2 0x1563 JUMP JUMPDEST PUSH1 0x40 MLOAD DUP1 SWAP2 SUB SWAP1 LOG2 POP POP JUMP JUMPDEST PUSH1 0x2 SLOAD DUP2 JUMP JUMPDEST PUSH0 PUSH1 0x1 SWAP1 SLOAD SWAP1 PUSH2 0x100 EXP SWAP1 DIV PUSH20 0xFFFFFFFFFFFFFFFFFFFFFFFFFFFFFFFFFFFFFFFF AND DUP2 JUMP JUMPDEST PUSH1 0x9 PUSH1 0x20 MSTORE DUP1 PUSH0 MSTORE PUSH1 0x40 PUSH0 KECCAK256 PUSH0 SWAP2 POP SWAP1 POP SLOAD DUP2 JUMP JUMPDEST PUSH0 PUSH0 SWAP1 SLOAD SWAP1 PUSH2 0x100 EXP SWAP1 DIV PUSH1 0xFF AND DUP2 JUMP JUMPDEST PUSH2 0x12C DUP2 JUMP JUMPDEST PUSH1 0x6 DUP2 DUP2 SLOAD DUP2 LT PUSH2 0x10C8 JUMPI PUSH0 DUP1 REVERT JUMPDEST SWAP1 PUSH0 MSTORE PUSH1 0x20 PUSH0 KECCAK256 ADD PUSH0 SWAP2 POP SLOAD SWAP1 PUSH2 0x100 EXP SWAP1 DIV PUSH20 0xFFFFFFFFFFFFFFFFFFFFFFFFFFFFFFFFFFFFFFFF AND DUP2 JUMP JUMPDEST PUSH0 PUSH1 0x5 PUSH0 DUP5 PUSH20 0xFFFFFFFFFFFFFFFFFFFFFFFFFFFFFFFFFFFFFFFF AND PUSH20 0xFFFFFFFFFFFFFFFFFFFFFFFFFFFFFFFFFFFFFFFF AND DUP2 MSTORE PUSH1 0x20 ADD SWAP1 DUP2 MSTORE PUSH1 0x20 ADD PUSH0 KECCAK256 PUSH0 DUP4 PUSH20 0xFFFFFFFFFFFFFFFFFFFFFFFFFFFFFFFFFFFFFFFF AND PUSH20 0xFFFFFFFFFFFFFFFFFFFFFFFFFFFFFFFFFFFFFFFF AND DUP2 MSTORE PUSH1 0x20 ADD SWAP1 DUP2 MSTORE PUSH1 0x20 ADD PUSH0 KECCAK256 PUSH0 SWAP1 SLOAD SWAP1 PUSH2 0x100 EXP SWAP1 DIV PUSH20 0xFFFFFFFFFFFFFFFFFFFFFFFFFFFFFFFFFFFFFFFF AND SWAP1 POP SWAP3 SWAP2 POP POP JUMP JUMPDEST PUSH0 PUSH1 0x1 SWAP1 SLOAD SWAP1 PUSH2 0x100 EXP SWAP1 DIV PUSH20 0xFFFFFFFFFFFFFFFFFFFFFFFFFFFFFFFFFFFFFFFF AND PUSH20 0xFFFFFFFFFFFFFFFFFFFFFFFFFFFFFFFFFFFFFFFF AND CALLER PUSH20 0xFFFFFFFFFFFFFFFFFFFFFFFFFFFFFFFFFFFFFFFF AND EQ PUSH2 0x121B JUMPI PUSH1 0x40 MLOAD PUSH32 0x492F678100000000000000000000000000000000000000000000000000000000 DUP2 MSTORE PUSH1 0x4 ADD PUSH1 0x40 MLOAD DUP1 SWAP2 SUB SWAP1 REVERT JUMPDEST DUP1 PUSH0 PUSH0 PUSH2 0x100 EXP DUP2 SLOAD DUP2 PUSH1 0xFF MUL NOT AND SWAP1 DUP4 ISZERO ISZERO MUL OR SWAP1 SSTORE POP PUSH32 0xD76538EFC408318A051137C2720A9E82902ACDBD46B802D488B74CA3A09A116 DUP2 PUSH1 0x40 MLOAD PUSH2 0x1262 SWAP2 SWAP1 PUSH2 0x15FE JUMP JUMPDEST PUSH1 0x40 MLOAD DUP1 SWAP2 SUB SWAP1 LOG1 POP JUMP JUMPDEST PUSH1 0x3 PUSH0 SWAP1 SLOAD SWAP1 PUSH2 0x100 EXP SWAP1 DIV PUSH20 0xFFFFFFFFFFFFFFFFFFFFFFFFFFFFFFFFFFFFFFFF AND DUP2 JUMP JUMPDEST PUSH1 0x3 PUSH0 SWAP1 SLOAD SWAP1 PUSH2 0x100 EXP SWAP1 DIV PUSH20 0xFFFFFFFFFFFFFFFFFFFFFFFFFFFFFFFFFFFFFFFF AND PUSH20 0xFFFFFFFFFFFFFFFFFFFFFFFFFFFFFFFFFFFFFFFF AND CALLER PUSH20 0xFFFFFFFFFFFFFFFFFFFFFFFFFFFFFFFFFFFFFFFF AND EQ PUSH2 0x1318 JUMPI PUSH1 0x40 MLOAD PUSH32 0xF5D267EB00000000000000000000000000000000000000000000000000000000 DUP2 MSTORE PUSH1 0x4 ADD PUSH1 0x40 MLOAD DUP1 SWAP2 SUB SWAP1 REVERT JUMPDEST PUSH2 0x12C DUP2 GT ISZERO PUSH2 0x1354 JUMPI PUSH1 0x40 MLOAD PUSH32 0xCD4E616700000000000000000000000000000000000000000000000000000000 DUP2 MSTORE PUSH1 0x4 ADD PUSH1 0x40 MLOAD DUP1 SWAP2 SUB SWAP1 REVERT JUMPDEST PUSH0 DUP2 SUB PUSH2 0x138D JUMPI PUSH1 0x40 MLOAD PUSH32 0xAF13986D00000000000000000000000000000000000000000000000000000000 DUP2 MSTORE PUSH1 0x4 ADD PUSH1 0x40 MLOAD DUP1 SWAP2 SUB SWAP1 REVERT JUMPDEST DUP2 ISZERO PUSH2 0x139F JUMPI DUP1 PUSH1 0x1 DUP2 SWAP1 SSTORE POP PUSH2 0x13A7 JUMP JUMPDEST DUP1 PUSH1 0x2 DUP2 SWAP1 SSTORE POP JUMPDEST POP POP JUMP JUMPDEST PUSH0 PUSH1 0x6 DUP1 SLOAD SWAP1 POP SWAP1 POP SWAP1 JUMP JUMPDEST PUSH0 PUSH2 0x13C3 DUP4 DUP4 PUSH0 PUSH2 0x13CB JUMP JUMPDEST SWAP1 POP SWAP3 SWAP2 POP POP JUMP JUMPDEST PUSH0 DUP2 SELFBALANCE LT ISZERO PUSH2 0x1413 JUMPI SELFBALANCE DUP3 PUSH1 0x40 MLOAD PUSH32 0xCF47918100000000000000000000000000000000000000000000000000000000 DUP2 MSTORE PUSH1 0x4 ADD PUSH2 0x140A SWAP3 SWAP2 SWAP1 PUSH2 0x17F9 JUMP JUMPDEST PUSH1 0x40 MLOAD DUP1 SWAP2 SUB SWAP1 REVERT JUMPDEST PUSH23 0x3D602D80600A3D3981F3363D3D373D3D3D363D73000000 DUP5 PUSH1 0x60 SHL PUSH1 0xE8 SHR OR PUSH0 MSTORE PUSH15 0x5AF43D82803E903D91602B57FD5BF3 DUP5 PUSH1 0x78 SHL OR PUSH1 0x20 MSTORE DUP3 PUSH1 0x37 PUSH1 0x9 DUP5 CREATE2 SWAP1 POP PUSH0 PUSH20 0xFFFFFFFFFFFFFFFFFFFFFFFFFFFFFFFFFFFFFFFF AND DUP2 PUSH20 0xFFFFFFFFFFFFFFFFFFFFFFFFFFFFFFFFFFFFFFFF AND SUB PUSH2 0x14BB JUMPI PUSH1 0x40 MLOAD PUSH32 0xB06EBF3D00000000000000000000000000000000000000000000000000000000 DUP2 MSTORE PUSH1 0x4 ADD PUSH1 0x40 MLOAD DUP1 SWAP2 SUB SWAP1 REVERT JUMPDEST SWAP4 SWAP3 POP POP POP JUMP JUMPDEST PUSH0 PUSH0 REVERT JUMPDEST PUSH0 PUSH20 0xFFFFFFFFFFFFFFFFFFFFFFFFFFFFFFFFFFFFFFFF DUP3 AND SWAP1 POP SWAP2 SWAP1 POP JUMP JUMPDEST PUSH0 PUSH2 0x14EF DUP3 PUSH2 0x14C6 JUMP JUMPDEST SWAP1 POP SWAP2 SWAP1 POP JUMP JUMPDEST PUSH2 0x14FF DUP2 PUSH2 0x14E5 JUMP JUMPDEST DUP2 EQ PUSH2 0x1509 JUMPI PUSH0 PUSH0 REVERT JUMPDEST POP JUMP JUMPDEST PUSH0 DUP2 CALLDATALOAD SWAP1 POP PUSH2 0x151A DUP2 PUSH2 0x14F6 JUMP JUMPDEST SWAP3 SWAP2 POP POP JUMP JUMPDEST PUSH0 PUSH1 0x20 DUP3 DUP5 SUB SLT ISZERO PUSH2 0x1535 JUMPI PUSH2 0x1534 PUSH2 0x14C2 JUMP JUMPDEST JUMPDEST PUSH0 PUSH2 0x1542 DUP5 DUP3 DUP6 ADD PUSH2 0x150C JUMP JUMPDEST SWAP2 POP POP SWAP3 SWAP2 POP POP JUMP JUMPDEST PUSH0 DUP2 SWAP1 POP SWAP2 SWAP1 POP JUMP JUMPDEST PUSH2 0x155D DUP2 PUSH2 0x154B JUMP JUMPDEST DUP3 MSTORE POP POP JUMP JUMPDEST PUSH0 PUSH1 0x20 DUP3 ADD SWAP1 POP PUSH2 0x1576 PUSH0 DUP4 ADD DUP5 PUSH2 0x1554 JUMP JUMPDEST SWAP3 SWAP2 POP POP JUMP JUMPDEST PUSH2 0x1585 DUP2 PUSH2 0x154B JUMP JUMPDEST DUP2 EQ PUSH2 0x158F JUMPI PUSH0 PUSH0 REVERT JUMPDEST POP JUMP JUMPDEST PUSH0 DUP2 CALLDATALOAD SWAP1 POP PUSH2 0x15A0 DUP2 PUSH2 0x157C JUMP JUMPDEST SWAP3 SWAP2 POP POP JUMP JUMPDEST PUSH0 PUSH0 PUSH1 0x40 DUP4 DUP6 SUB SLT ISZERO PUSH2 0x15BC JUMPI PUSH2 0x15BB PUSH2 0x14C2 JUMP JUMPDEST JUMPDEST PUSH0 PUSH2 0x15C9 DUP6 DUP3 DUP7 ADD PUSH2 0x150C JUMP JUMPDEST SWAP3 POP POP PUSH1 0x20 PUSH2 0x15DA DUP6 DUP3 DUP7 ADD PUSH2 0x1592 JUMP JUMPDEST SWAP2 POP POP SWAP3 POP SWAP3 SWAP1 POP JUMP JUMPDEST PUSH0 DUP2 ISZERO ISZERO SWAP1 POP SWAP2 SWAP1 POP JUMP JUMPDEST PUSH2 0x15F8 DUP2 PUSH2 0x15E4 JUMP JUMPDEST DUP3 MSTORE POP POP JUMP JUMPDEST PUSH0 PUSH1 0x20 DUP3 ADD SWAP1 POP PUSH2 0x1611 PUSH0 DUP4 ADD DUP5 PUSH2 0x15EF JUMP JUMPDEST SWAP3 SWAP2 POP POP JUMP JUMPDEST PUSH2 0x1620 DUP2 PUSH2 0x14E5 JUMP JUMPDEST DUP3 MSTORE POP POP JUMP JUMPDEST PUSH0 PUSH1 0x20 DUP3 ADD SWAP1 POP PUSH2 0x1639 PUSH0 DUP4 ADD DUP5 PUSH2 0x1617 JUMP JUMPDEST SWAP3 SWAP2 POP POP JUMP JUMPDEST PUSH0 PUSH0 PUSH1 0x40 DUP4 DUP6 SUB SLT ISZERO PUSH2 0x1655 JUMPI PUSH2 0x1654 PUSH2 0x14C2 JUMP JUMPDEST JUMPDEST PUSH0 PUSH2 0x1662 DUP6 DUP3 DUP7 ADD PUSH2 0x150C JUMP JUMPDEST SWAP3 POP POP PUSH1 0x20 PUSH2 0x1673 DUP6 DUP3 DUP7 ADD PUSH2 0x150C JUMP JUMPDEST SWAP2 POP POP SWAP3 POP SWAP3 SWAP1 POP JUMP JUMPDEST PUSH0 PUSH1 0x20 DUP3 DUP5 SUB SLT ISZERO PUSH2 0x1692 JUMPI PUSH2 0x1691 PUSH2 0x14C2 JUMP JUMPDEST JUMPDEST PUSH0 PUSH2 0x169F DUP5 DUP3 DUP6 ADD PUSH2 0x1592 JUMP JUMPDEST SWAP2 POP POP SWAP3 SWAP2 POP POP JUMP JUMPDEST PUSH2 0x16B1 DUP2 PUSH2 0x15E4 JUMP JUMPDEST DUP2 EQ PUSH2 0x16BB JUMPI PUSH0 PUSH0 REVERT JUMPDEST POP JUMP JUMPDEST PUSH0 DUP2 CALLDATALOAD SWAP1 POP PUSH2 0x16CC DUP2 PUSH2 0x16A8 JUMP JUMPDEST SWAP3 SWAP2 POP POP JUMP JUMPDEST PUSH0 PUSH1 0x20 DUP3 DUP5 SUB SLT ISZERO PUSH2 0x16E7 JUMPI PUSH2 0x16E6 PUSH2 0x14C2 JUMP JUMPDEST JUMPDEST PUSH0 PUSH2 0x16F4 DUP5 DUP3 DUP6 ADD PUSH2 0x16BE JUMP JUMPDEST SWAP2 POP POP SWAP3 SWAP2 POP POP JUMP JUMPDEST PUSH0 PUSH0 PUSH1 0x40 DUP4 DUP6 SUB SLT ISZERO PUSH2 0x1713 JUMPI PUSH2 0x1712 PUSH2 0x14C2 JUMP JUMPDEST JUMPDEST PUSH0 PUSH2 0x1720 DUP6 DUP3 DUP7 ADD PUSH2 0x16BE JUMP JUMPDEST SWAP3 POP POP PUSH1 0x20 PUSH2 0x1731 DUP6 DUP3 DUP7 ADD PUSH2 0x1592 JUMP JUMPDEST SWAP2 POP POP SWAP3 POP SWAP3 SWAP1 POP JUMP JUMPDEST PUSH0 DUP2 PUSH1 0x60 SHL SWAP1 POP SWAP2 SWAP1 POP JUMP JUMPDEST PUSH0 PUSH2 0x1751 DUP3 PUSH2 0x173B JUMP JUMPDEST SWAP1 POP SWAP2 SWAP1 POP JUMP JUMPDEST PUSH0 PUSH2 0x1762 DUP3 PUSH2 0x1747 JUMP JUMPDEST SWAP1 POP SWAP2 SWAP1 POP JUMP JUMPDEST PUSH2 0x177A PUSH2 0x1775 DUP3 PUSH2 0x14E5 JUMP JUMPDEST PUSH2 0x1758 JUMP JUMPDEST DUP3 MSTORE POP POP JUMP JUMPDEST PUSH0 PUSH2 0x178B DUP3 DUP6 PUSH2 0x1769 JUMP JUMPDEST PUSH1 0x14 DUP3 ADD SWAP2 POP PUSH2 0x179B DUP3 DUP5 PUSH2 0x1769 JUMP JUMPDEST PUSH1 0x14 DUP3 ADD SWAP2 POP DUP2 SWAP1 POP SWAP4 SWAP3 POP POP POP JUMP JUMPDEST PUSH0 PUSH1 0x40 DUP3 ADD SWAP1 POP PUSH2 0x17BE PUSH0 DUP4 ADD DUP6 PUSH2 0x1617 JUMP JUMPDEST PUSH2 0x17CB PUSH1 0x20 DUP4 ADD DUP5 PUSH2 0x1617 JUMP JUMPDEST SWAP4 SWAP3 POP POP POP JUMP JUMPDEST PUSH0 PUSH1 0x40 DUP3 ADD SWAP1 POP PUSH2 0x17E5 PUSH0 DUP4 ADD DUP6 PUSH2 0x1617 JUMP JUMPDEST PUSH2 0x17F2 PUSH1 0x20 DUP4 ADD DUP5 PUSH2 0x1554 JUMP JUMPDEST SWAP4 SWAP3 POP POP POP JUMP JUMPDEST PUSH0 PUSH1 0x40 DUP3 ADD SWAP1 POP PUSH2 0x180C PUSH0 DUP4 ADD DUP6 PUSH2 0x1554 JUMP JUMPDEST PUSH2 0x1819 PUSH1 0x20 DUP4 ADD DUP5 PUSH2 0x1554 JUMP JUMPDEST SWAP4 SWAP3 POP POP POP JUMP INVALID LOG2 PUSH5 0x6970667358 0x22 SLT KECCAK256 CODESIZE 0xEE JUMP 0xAF ADDRESS 0x26 PREVRANDAO 0xC5 0xC3 0x21 SWAP11 PUSH8 0xBA759A7E38127D62 PUSH17 0xDA290AF901A7E77178F26E64736F6C6343 STOP ADDMOD SHR STOP CALLER "
				},
				"gasEstimates": {
					"creation": {
						"codeDepositCost": "1246000",
						"executionCost": "infinite",
						"totalCost": "infinite"
					},
					"external": {
						"MAX_FEE()": "436",
						"allValidators(uint256)": "4966",
						"allValidatorsLength()": "2572",
						"claimFee()": "2448",
						"createValidator(address,address)": "infinite",
						"customClaimFee(address)": "2869",
						"customDepositFee(address)": "2826",
						"depositFee()": "2514",
						"feeManager()": "2596",
						"getValidator(address,address)": "infinite",
						"implementation()": "infinite",
						"isPaused()": "2554",
						"isValidatorl(address)": "2960",
						"pauser()": "2603",
						"setClaimCustomFee(address,uint256)": "infinite",
						"setDepositCustomFee(address,uint256)": "infinite",
						"setFee(bool,uint256)": "25049",
						"setFeeManager(address)": "infinite",
						"setPauseState(bool)": "infinite",
						"setPauser(address)": "infinite",
						"setVoter(address)": "infinite",
						"voter()": "2620"
					}
				},
				"methodIdentifiers": {
					"MAX_FEE()": "bc063e1a",
					"allValidators(uint256)": "bcecf81b",
					"allValidatorsLength()": "f64ee765",
					"claimFee()": "99d32fc4",
					"createValidator(address,address)": "830e4eef",
					"customClaimFee(address)": "a74adceb",
					"customDepositFee(address)": "28a6b3ff",
					"depositFee()": "67a52793",
					"feeManager()": "d0fb0203",
					"getValidator(address,address)": "cd1a0dd2",
					"implementation()": "5c60da1b",
					"isPaused()": "b187bd26",
					"isValidatorl(address)": "38ed1793",
					"pauser()": "9fd0506d",
					"setClaimCustomFee(address,uint256)": "984fa01f",
					"setDepositCustomFee(address,uint256)": "2c3de946",
					"setFee(bool,uint256)": "e1f76b44",
					"setFeeManager(address)": "472d35b9",
					"setPauseState(bool)": "cdb88ad1",
					"setPauser(address)": "2d88af4a",
					"setVoter(address)": "4bc2a657",
					"voter()": "46c96aac"
				}
			},
			"storageLayout": {
				"storage": [
					{
						"astId": 195,
						"contract": "contracts/ValidatorFactory.sol:ValidatorFactory",
						"label": "isPaused",
						"offset": 0,
						"slot": "0",
						"type": "t_bool"
					},
					{
						"astId": 197,
						"contract": "contracts/ValidatorFactory.sol:ValidatorFactory",
						"label": "pauser",
						"offset": 1,
						"slot": "0",
						"type": "t_address"
					},
					{
						"astId": 199,
						"contract": "contracts/ValidatorFactory.sol:ValidatorFactory",
						"label": "depositFee",
						"offset": 0,
						"slot": "1",
						"type": "t_uint256"
					},
					{
						"astId": 201,
						"contract": "contracts/ValidatorFactory.sol:ValidatorFactory",
						"label": "claimFee",
						"offset": 0,
						"slot": "2",
						"type": "t_uint256"
					},
					{
						"astId": 206,
						"contract": "contracts/ValidatorFactory.sol:ValidatorFactory",
						"label": "feeManager",
						"offset": 0,
						"slot": "3",
						"type": "t_address"
					},
					{
						"astId": 208,
						"contract": "contracts/ValidatorFactory.sol:ValidatorFactory",
						"label": "voter",
						"offset": 0,
						"slot": "4",
						"type": "t_address"
					},
					{
						"astId": 214,
						"contract": "contracts/ValidatorFactory.sol:ValidatorFactory",
						"label": "_validatorList",
						"offset": 0,
						"slot": "5",
						"type": "t_mapping(t_address,t_mapping(t_address,t_address))"
					},
					{
						"astId": 217,
						"contract": "contracts/ValidatorFactory.sol:ValidatorFactory",
						"label": "allValidators",
						"offset": 0,
						"slot": "6",
						"type": "t_array(t_address)dyn_storage"
					},
					{
						"astId": 221,
						"contract": "contracts/ValidatorFactory.sol:ValidatorFactory",
						"label": "_isValidator",
						"offset": 0,
						"slot": "7",
						"type": "t_mapping(t_address,t_bool)"
					},
					{
						"astId": 225,
						"contract": "contracts/ValidatorFactory.sol:ValidatorFactory",
						"label": "customDepositFee",
						"offset": 0,
						"slot": "8",
						"type": "t_mapping(t_address,t_uint256)"
					},
					{
						"astId": 229,
						"contract": "contracts/ValidatorFactory.sol:ValidatorFactory",
						"label": "customClaimFee",
						"offset": 0,
						"slot": "9",
						"type": "t_mapping(t_address,t_uint256)"
					}
				],
				"types": {
					"t_address": {
						"encoding": "inplace",
						"label": "address",
						"numberOfBytes": "20"
					},
					"t_array(t_address)dyn_storage": {
						"base": "t_address",
						"encoding": "dynamic_array",
						"label": "address[]",
						"numberOfBytes": "32"
					},
					"t_bool": {
						"encoding": "inplace",
						"label": "bool",
						"numberOfBytes": "1"
					},
					"t_mapping(t_address,t_address)": {
						"encoding": "mapping",
						"key": "t_address",
						"label": "mapping(address => address)",
						"numberOfBytes": "32",
						"value": "t_address"
					},
					"t_mapping(t_address,t_bool)": {
						"encoding": "mapping",
						"key": "t_address",
						"label": "mapping(address => bool)",
						"numberOfBytes": "32",
						"value": "t_bool"
					},
					"t_mapping(t_address,t_mapping(t_address,t_address))": {
						"encoding": "mapping",
						"key": "t_address",
						"label": "mapping(address => mapping(address => address))",
						"numberOfBytes": "32",
						"value": "t_mapping(t_address,t_address)"
					},
					"t_mapping(t_address,t_uint256)": {
						"encoding": "mapping",
						"key": "t_address",
						"label": "mapping(address => uint256)",
						"numberOfBytes": "32",
						"value": "t_uint256"
					},
					"t_uint256": {
						"encoding": "inplace",
						"label": "uint256",
						"numberOfBytes": "32"
					}
				}
			},
			"userdoc": {
				"kind": "user",
				"methods": {
					"allValidatorsLength()": {
						"notice": "returns the number of validators created from this factory"
					},
					"createValidator(address,address)": {
						"notice": "Create a validator given token and owner"
					},
					"getValidator(address,address)": {
						"notice": "Return address of validator created by this factory"
					},
					"isValidatorl(address)": {
						"notice": "Is a valid validator created by this factory."
					},
					"setClaimCustomFee(address,uint256)": {
						"notice": "Set overriding fee for a validator from the default"
					},
					"setDepositCustomFee(address,uint256)": {
						"notice": "Set overriding fee for a validator from the default"
					},
					"setFee(bool,uint256)": {
						"notice": "Set default fee for stable and volatile pools."
					}
				},
				"version": 1
			}
		}
	}
}